{
  "contractName": "ERC20Token",
  "abi": [
    {
      "inputs": [
        {
          "internalType": "string",
          "name": "name",
          "type": "string"
        },
        {
          "internalType": "string",
          "name": "symbol",
          "type": "string"
        },
        {
          "internalType": "uint256",
          "name": "amount",
          "type": "uint256"
        }
      ],
      "stateMutability": "nonpayable",
      "type": "constructor"
    },
    {
      "anonymous": false,
      "inputs": [
        {
          "indexed": true,
          "internalType": "address",
          "name": "owner",
          "type": "address"
        },
        {
          "indexed": true,
          "internalType": "address",
          "name": "spender",
          "type": "address"
        },
        {
          "indexed": false,
          "internalType": "uint256",
          "name": "value",
          "type": "uint256"
        }
      ],
      "name": "Approval",
      "type": "event"
    },
    {
      "anonymous": false,
      "inputs": [
        {
          "indexed": true,
          "internalType": "address",
          "name": "from",
          "type": "address"
        },
        {
          "indexed": true,
          "internalType": "address",
          "name": "to",
          "type": "address"
        },
        {
          "indexed": false,
          "internalType": "uint256",
          "name": "value",
          "type": "uint256"
        }
      ],
      "name": "Transfer",
      "type": "event"
    },
    {
      "inputs": [
        {
          "internalType": "address",
          "name": "owner",
          "type": "address"
        },
        {
          "internalType": "address",
          "name": "spender",
          "type": "address"
        }
      ],
      "name": "allowance",
      "outputs": [
        {
          "internalType": "uint256",
          "name": "",
          "type": "uint256"
        }
      ],
      "stateMutability": "view",
      "type": "function"
    },
    {
      "inputs": [
        {
          "internalType": "address",
          "name": "spender",
          "type": "address"
        },
        {
          "internalType": "uint256",
          "name": "amount",
          "type": "uint256"
        }
      ],
      "name": "approve",
      "outputs": [
        {
          "internalType": "bool",
          "name": "",
          "type": "bool"
        }
      ],
      "stateMutability": "nonpayable",
      "type": "function"
    },
    {
      "inputs": [
        {
          "internalType": "address",
          "name": "account",
          "type": "address"
        }
      ],
      "name": "balanceOf",
      "outputs": [
        {
          "internalType": "uint256",
          "name": "",
          "type": "uint256"
        }
      ],
      "stateMutability": "view",
      "type": "function"
    },
    {
      "inputs": [],
      "name": "decimals",
      "outputs": [
        {
          "internalType": "uint8",
          "name": "",
          "type": "uint8"
        }
      ],
      "stateMutability": "view",
      "type": "function"
    },
    {
      "inputs": [
        {
          "internalType": "address",
          "name": "spender",
          "type": "address"
        },
        {
          "internalType": "uint256",
          "name": "subtractedValue",
          "type": "uint256"
        }
      ],
      "name": "decreaseAllowance",
      "outputs": [
        {
          "internalType": "bool",
          "name": "",
          "type": "bool"
        }
      ],
      "stateMutability": "nonpayable",
      "type": "function"
    },
    {
      "inputs": [
        {
          "internalType": "address",
          "name": "spender",
          "type": "address"
        },
        {
          "internalType": "uint256",
          "name": "addedValue",
          "type": "uint256"
        }
      ],
      "name": "increaseAllowance",
      "outputs": [
        {
          "internalType": "bool",
          "name": "",
          "type": "bool"
        }
      ],
      "stateMutability": "nonpayable",
      "type": "function"
    },
    {
      "inputs": [],
      "name": "name",
      "outputs": [
        {
          "internalType": "string",
          "name": "",
          "type": "string"
        }
      ],
      "stateMutability": "view",
      "type": "function"
    },
    {
      "inputs": [],
      "name": "symbol",
      "outputs": [
        {
          "internalType": "string",
          "name": "",
          "type": "string"
        }
      ],
      "stateMutability": "view",
      "type": "function"
    },
    {
      "inputs": [],
      "name": "totalSupply",
      "outputs": [
        {
          "internalType": "uint256",
          "name": "",
          "type": "uint256"
        }
      ],
      "stateMutability": "view",
      "type": "function"
    },
    {
      "inputs": [
        {
          "internalType": "address",
          "name": "to",
          "type": "address"
        },
        {
          "internalType": "uint256",
          "name": "amount",
          "type": "uint256"
        }
      ],
      "name": "transfer",
      "outputs": [
        {
          "internalType": "bool",
          "name": "",
          "type": "bool"
        }
      ],
      "stateMutability": "nonpayable",
      "type": "function"
    },
    {
      "inputs": [
        {
          "internalType": "address",
          "name": "from",
          "type": "address"
        },
        {
          "internalType": "address",
          "name": "to",
          "type": "address"
        },
        {
          "internalType": "uint256",
          "name": "amount",
          "type": "uint256"
        }
      ],
      "name": "transferFrom",
      "outputs": [
        {
          "internalType": "bool",
          "name": "",
          "type": "bool"
        }
      ],
      "stateMutability": "nonpayable",
      "type": "function"
    },
    {
      "inputs": [
        {
          "internalType": "address",
          "name": "recipient",
          "type": "address"
        },
        {
          "internalType": "uint256",
          "name": "amount",
          "type": "uint256"
        }
      ],
      "name": "sendTokens",
      "outputs": [],
      "stateMutability": "nonpayable",
      "type": "function"
    },
    {
      "inputs": [
        {
          "internalType": "address",
          "name": "account",
          "type": "address"
        },
        {
          "internalType": "uint256",
          "name": "amount",
          "type": "uint256"
        }
      ],
      "name": "increaseBalance",
      "outputs": [],
      "stateMutability": "nonpayable",
      "type": "function"
    },
    {
      "inputs": [
        {
          "internalType": "address",
          "name": "account",
          "type": "address"
        },
        {
          "internalType": "uint256",
          "name": "amount",
          "type": "uint256"
        }
      ],
      "name": "decreaseBalance",
      "outputs": [],
      "stateMutability": "nonpayable",
      "type": "function"
    },
    {
      "inputs": [
        {
          "internalType": "address",
          "name": "from",
          "type": "address"
        },
        {
          "internalType": "address",
          "name": "to",
          "type": "address"
        },
        {
          "internalType": "uint256",
          "name": "amount",
          "type": "uint256"
        }
      ],
      "name": "transferFromDifferentAccounts",
      "outputs": [],
      "stateMutability": "nonpayable",
      "type": "function"
    }
  ],
  "bytecode": "0x60806040523480156200001157600080fd5b506040516200241838038062002418833981810160405281019062000037919062000488565b828281600390805190602001906200005192919062000200565b5080600490805190602001906200006a92919062000200565b5050506200007f33826200008860201b60201c565b505050620006c4565b600073ffffffffffffffffffffffffffffffffffffffff168273ffffffffffffffffffffffffffffffffffffffff161415620000fb576040517f08c379a0000000000000000000000000000000000000000000000000000000008152600401620000f29062000583565b60405180910390fd5b6200010f60008383620001f660201b60201c565b8060026000828254620001239190620005d4565b92505081905550806000808473ffffffffffffffffffffffffffffffffffffffff1673ffffffffffffffffffffffffffffffffffffffff168152602001908152602001600020600082825401925050819055508173ffffffffffffffffffffffffffffffffffffffff16600073ffffffffffffffffffffffffffffffffffffffff167fddf252ad1be2c89b69c2b068fc378daa952ba7f163c4a11628f55a4df523b3ef83604051620001d6919062000642565b60405180910390a3620001f260008383620001fb60201b60201c565b5050565b505050565b505050565b8280546200020e906200068e565b90600052602060002090601f0160209004810192826200023257600085556200027e565b82601f106200024d57805160ff19168380011785556200027e565b828001600101855582156200027e579182015b828111156200027d57825182559160200191906001019062000260565b5b5090506200028d919062000291565b5090565b5b80821115620002ac57600081600090555060010162000292565b5090565b6000604051905090565b600080fd5b600080fd5b600080fd5b600080fd5b6000601f19601f8301169050919050565b7f4e487b7100000000000000000000000000000000000000000000000000000000600052604160045260246000fd5b6200031982620002ce565b810181811067ffffffffffffffff821117156200033b576200033a620002df565b5b80604052505050565b600062000350620002b0565b90506200035e82826200030e565b919050565b600067ffffffffffffffff821115620003815762000380620002df565b5b6200038c82620002ce565b9050602081019050919050565b60005b83811015620003b95780820151818401526020810190506200039c565b83811115620003c9576000848401525b50505050565b6000620003e6620003e08462000363565b62000344565b905082815260208101848484011115620004055762000404620002c9565b5b6200041284828562000399565b509392505050565b600082601f830112620004325762000431620002c4565b5b815162000444848260208601620003cf565b91505092915050565b6000819050919050565b62000462816200044d565b81146200046e57600080fd5b50565b600081519050620004828162000457565b92915050565b600080600060608486031215620004a457620004a3620002ba565b5b600084015167ffffffffffffffff811115620004c557620004c4620002bf565b5b620004d3868287016200041a565b935050602084015167ffffffffffffffff811115620004f757620004f6620002bf565b5b62000505868287016200041a565b9250506040620005188682870162000471565b9150509250925092565b600082825260208201905092915050565b7f45524332303a206d696e7420746f20746865207a65726f206164647265737300600082015250565b60006200056b601f8362000522565b9150620005788262000533565b602082019050919050565b600060208201905081810360008301526200059e816200055c565b9050919050565b7f4e487b7100000000000000000000000000000000000000000000000000000000600052601160045260246000fd5b6000620005e1826200044d565b9150620005ee836200044d565b9250827fffffffffffffffffffffffffffffffffffffffffffffffffffffffffffffffff03821115620006265762000625620005a5565b5b828201905092915050565b6200063c816200044d565b82525050565b600060208201905062000659600083018462000631565b92915050565b7f4e487b7100000000000000000000000000000000000000000000000000000000600052602260045260246000fd5b60006002820490506001821680620006a757607f821691505b60208210811415620006be57620006bd6200065f565b5b50919050565b611d4480620006d46000396000f3fe608060405234801561001057600080fd5b50600436106100f55760003560e01c80635b86f59911610097578063a457c2d711610066578063a457c2d714610286578063a9059cbb146102b6578063dd62ed3e146102e6578063ff05694914610316576100f5565b80635b86f5991461020057806370a082311461021c5780637313f8a61461024c57806395d89b4114610268576100f5565b806318160ddd116100d357806318160ddd1461016457806323b872dd14610182578063313ce567146101b257806339509351146101d0576100f5565b806305ab421d146100fa57806306fdde0314610116578063095ea7b314610134575b600080fd5b610114600480360381019061010f9190611252565b610332565b005b61011e61043f565b60405161012b919061132b565b60405180910390f35b61014e60048036038101906101499190611252565b6104d1565b60405161015b9190611368565b60405180910390f35b61016c6104f4565b6040516101799190611392565b60405180910390f35b61019c600480360381019061019791906113ad565b6104fe565b6040516101a99190611368565b60405180910390f35b6101ba61052d565b6040516101c7919061141c565b60405180910390f35b6101ea60048036038101906101e59190611252565b610536565b6040516101f79190611368565b60405180910390f35b61021a60048036038101906102159190611252565b61056d565b005b61023660048036038101906102319190611437565b6105eb565b6040516102439190611392565b60405180910390f35b610266600480360381019061026191906113ad565b610633565b005b610270610737565b60405161027d919061132b565b60405180910390f35b6102a0600480360381019061029b9190611252565b6107c9565b6040516102ad9190611368565b60405180910390f35b6102d060048036038101906102cb9190611252565b610840565b6040516102dd9190611368565b60405180910390f35b61030060048036038101906102fb9190611464565b610863565b60405161030d9190611392565b60405180910390f35b610330600480360381019061032b9190611252565b6108ea565b005b600073ffffffffffffffffffffffffffffffffffffffff168273ffffffffffffffffffffffffffffffffffffffff1614156103a2576040517f08c379a0000000000000000000000000000000000000000000000000000000008152600401610399906114f0565b60405180910390fd5b600081116103e5576040517f08c379a00000000000000000000000000000000000000000000000000000000081526004016103dc9061155c565b60405180910390fd5b806103ef336105eb565b1015610430576040517f08c379a0000000000000000000000000000000000000000000000000000000008152600401610427906115c8565b60405180910390fd5b61043b3383836109b3565b5050565b60606003805461044e90611617565b80601f016020809104026020016040519081016040528092919081815260200182805461047a90611617565b80156104c75780601f1061049c576101008083540402835291602001916104c7565b820191906000526020600020905b8154815290600101906020018083116104aa57829003601f168201915b5050505050905090565b6000806104dc610c2b565b90506104e9818585610c33565b600191505092915050565b6000600254905090565b600080610509610c2b565b9050610516858285610dfe565b6105218585856109b3565b60019150509392505050565b60006012905090565b600080610541610c2b565b90506105628185856105538589610863565b61055d9190611678565b610c33565b600191505092915050565b600073ffffffffffffffffffffffffffffffffffffffff168273ffffffffffffffffffffffffffffffffffffffff1614156105dd576040517f08c379a00000000000000000000000000000000000000000000000000000000081526004016105d49061171a565b60405180910390fd5b6105e78282610e8a565b5050565b60008060008373ffffffffffffffffffffffffffffffffffffffff1673ffffffffffffffffffffffffffffffffffffffff168152602001908152602001600020549050919050565b600073ffffffffffffffffffffffffffffffffffffffff168373ffffffffffffffffffffffffffffffffffffffff161415801561069d5750600073ffffffffffffffffffffffffffffffffffffffff168273ffffffffffffffffffffffffffffffffffffffff1614155b6106dc576040517f08c379a00000000000000000000000000000000000000000000000000000000081526004016106d390611786565b60405180910390fd5b806106e6846105eb565b1015610727576040517f08c379a000000000000000000000000000000000000000000000000000000000815260040161071e906115c8565b60405180910390fd5b6107328383836109b3565b505050565b60606004805461074690611617565b80601f016020809104026020016040519081016040528092919081815260200182805461077290611617565b80156107bf5780601f10610794576101008083540402835291602001916107bf565b820191906000526020600020905b8154815290600101906020018083116107a257829003601f168201915b5050505050905090565b6000806107d4610c2b565b905060006107e28286610863565b905083811015610827576040517f08c379a000000000000000000000000000000000000000000000000000000000815260040161081e90611818565b60405180910390fd5b6108348286868403610c33565b60019250505092915050565b60008061084b610c2b565b90506108588185856109b3565b600191505092915050565b6000600160008473ffffffffffffffffffffffffffffffffffffffff1673ffffffffffffffffffffffffffffffffffffffff16815260200190815260200160002060008373ffffffffffffffffffffffffffffffffffffffff1673ffffffffffffffffffffffffffffffffffffffff16815260200190815260200160002054905092915050565b600073ffffffffffffffffffffffffffffffffffffffff168273ffffffffffffffffffffffffffffffffffffffff16141561095a576040517f08c379a00000000000000000000000000000000000000000000000000000000081526004016109519061171a565b60405180910390fd5b80610964836105eb565b10156109a5576040517f08c379a000000000000000000000000000000000000000000000000000000000815260040161099c906115c8565b60405180910390fd5b6109af8282610fe1565b5050565b600073ffffffffffffffffffffffffffffffffffffffff168373ffffffffffffffffffffffffffffffffffffffff161415610a23576040517f08c379a0000000000000000000000000000000000000000000000000000000008152600401610a1a906118aa565b60405180910390fd5b600073ffffffffffffffffffffffffffffffffffffffff168273ffffffffffffffffffffffffffffffffffffffff161415610a93576040517f08c379a0000000000000000000000000000000000000000000000000000000008152600401610a8a9061193c565b60405180910390fd5b610a9e8383836111af565b60008060008573ffffffffffffffffffffffffffffffffffffffff1673ffffffffffffffffffffffffffffffffffffffff16815260200190815260200160002054905081811015610b24576040517f08c379a0000000000000000000000000000000000000000000000000000000008152600401610b1b906119ce565b60405180910390fd5b8181036000808673ffffffffffffffffffffffffffffffffffffffff1673ffffffffffffffffffffffffffffffffffffffff16815260200190815260200160002081905550816000808573ffffffffffffffffffffffffffffffffffffffff1673ffffffffffffffffffffffffffffffffffffffff168152602001908152602001600020600082825401925050819055508273ffffffffffffffffffffffffffffffffffffffff168473ffffffffffffffffffffffffffffffffffffffff167fddf252ad1be2c89b69c2b068fc378daa952ba7f163c4a11628f55a4df523b3ef84604051610c129190611392565b60405180910390a3610c258484846111b4565b50505050565b600033905090565b600073ffffffffffffffffffffffffffffffffffffffff168373ffffffffffffffffffffffffffffffffffffffff161415610ca3576040517f08c379a0000000000000000000000000000000000000000000000000000000008152600401610c9a90611a60565b60405180910390fd5b600073ffffffffffffffffffffffffffffffffffffffff168273ffffffffffffffffffffffffffffffffffffffff161415610d13576040517f08c379a0000000000000000000000000000000000000000000000000000000008152600401610d0a90611af2565b60405180910390fd5b80600160008573ffffffffffffffffffffffffffffffffffffffff1673ffffffffffffffffffffffffffffffffffffffff16815260200190815260200160002060008473ffffffffffffffffffffffffffffffffffffffff1673ffffffffffffffffffffffffffffffffffffffff168152602001908152602001600020819055508173ffffffffffffffffffffffffffffffffffffffff168373ffffffffffffffffffffffffffffffffffffffff167f8c5be1e5ebec7d5bd14f71427d1e84f3dd0314c0f7b2291e5b200ac8c7c3b92583604051610df19190611392565b60405180910390a3505050565b6000610e0a8484610863565b90507fffffffffffffffffffffffffffffffffffffffffffffffffffffffffffffffff8114610e845781811015610e76576040517f08c379a0000000000000000000000000000000000000000000000000000000008152600401610e6d90611b5e565b60405180910390fd5b610e838484848403610c33565b5b50505050565b600073ffffffffffffffffffffffffffffffffffffffff168273ffffffffffffffffffffffffffffffffffffffff161415610efa576040517f08c379a0000000000000000000000000000000000000000000000000000000008152600401610ef190611bca565b60405180910390fd5b610f06600083836111af565b8060026000828254610f189190611678565b92505081905550806000808473ffffffffffffffffffffffffffffffffffffffff1673ffffffffffffffffffffffffffffffffffffffff168152602001908152602001600020600082825401925050819055508173ffffffffffffffffffffffffffffffffffffffff16600073ffffffffffffffffffffffffffffffffffffffff167fddf252ad1be2c89b69c2b068fc378daa952ba7f163c4a11628f55a4df523b3ef83604051610fc99190611392565b60405180910390a3610fdd600083836111b4565b5050565b600073ffffffffffffffffffffffffffffffffffffffff168273ffffffffffffffffffffffffffffffffffffffff161415611051576040517f08c379a000000000000000000000000000000000000000000000000000000000815260040161104890611c5c565b60405180910390fd5b61105d826000836111af565b60008060008473ffffffffffffffffffffffffffffffffffffffff1673ffffffffffffffffffffffffffffffffffffffff168152602001908152602001600020549050818110156110e3576040517f08c379a00000000000000000000000000000000000000000000000000000000081526004016110da90611cee565b60405180910390fd5b8181036000808573ffffffffffffffffffffffffffffffffffffffff1673ffffffffffffffffffffffffffffffffffffffff1681526020019081526020016000208190555081600260008282540392505081905550600073ffffffffffffffffffffffffffffffffffffffff168373ffffffffffffffffffffffffffffffffffffffff167fddf252ad1be2c89b69c2b068fc378daa952ba7f163c4a11628f55a4df523b3ef846040516111969190611392565b60405180910390a36111aa836000846111b4565b505050565b505050565b505050565b600080fd5b600073ffffffffffffffffffffffffffffffffffffffff82169050919050565b60006111e9826111be565b9050919050565b6111f9816111de565b811461120457600080fd5b50565b600081359050611216816111f0565b92915050565b6000819050919050565b61122f8161121c565b811461123a57600080fd5b50565b60008135905061124c81611226565b92915050565b60008060408385031215611269576112686111b9565b5b600061127785828601611207565b92505060206112888582860161123d565b9150509250929050565b600081519050919050565b600082825260208201905092915050565b60005b838110156112cc5780820151818401526020810190506112b1565b838111156112db576000848401525b50505050565b6000601f19601f8301169050919050565b60006112fd82611292565b611307818561129d565b93506113178185602086016112ae565b611320816112e1565b840191505092915050565b6000602082019050818103600083015261134581846112f2565b905092915050565b60008115159050919050565b6113628161134d565b82525050565b600060208201905061137d6000830184611359565b92915050565b61138c8161121c565b82525050565b60006020820190506113a76000830184611383565b92915050565b6000806000606084860312156113c6576113c56111b9565b5b60006113d486828701611207565b93505060206113e586828701611207565b92505060406113f68682870161123d565b9150509250925092565b600060ff82169050919050565b61141681611400565b82525050565b6000602082019050611431600083018461140d565b92915050565b60006020828403121561144d5761144c6111b9565b5b600061145b84828501611207565b91505092915050565b6000806040838503121561147b5761147a6111b9565b5b600061148985828601611207565b925050602061149a85828601611207565b9150509250929050565b7f496e76616c696420726563697069656e74206164647265737300000000000000600082015250565b60006114da60198361129d565b91506114e5826114a4565b602082019050919050565b60006020820190508181036000830152611509816114cd565b9050919050565b7f416d6f756e74206d7573742062652067726561746572207468616e207a65726f600082015250565b600061154660208361129d565b915061155182611510565b602082019050919050565b6000602082019050818103600083015261157581611539565b9050919050565b7f496e73756666696369656e742062616c616e6365000000000000000000000000600082015250565b60006115b260148361129d565b91506115bd8261157c565b602082019050919050565b600060208201905081810360008301526115e1816115a5565b9050919050565b7f4e487b7100000000000000000000000000000000000000000000000000000000600052602260045260246000fd5b6000600282049050600182168061162f57607f821691505b60208210811415611643576116426115e8565b5b50919050565b7f4e487b7100000000000000000000000000000000000000000000000000000000600052601160045260246000fd5b60006116838261121c565b915061168e8361121c565b9250827fffffffffffffffffffffffffffffffffffffffffffffffffffffffffffffffff038211156116c3576116c2611649565b5b828201905092915050565b7f496e76616c696420616464726573730000000000000000000000000000000000600082015250565b6000611704600f8361129d565b915061170f826116ce565b602082019050919050565b60006020820190508181036000830152611733816116f7565b9050919050565b7f496e76616c696420616464726573736573000000000000000000000000000000600082015250565b600061177060118361129d565b915061177b8261173a565b602082019050919050565b6000602082019050818103600083015261179f81611763565b9050919050565b7f45524332303a2064656372656173656420616c6c6f77616e63652062656c6f7760008201527f207a65726f000000000000000000000000000000000000000000000000000000602082015250565b600061180260258361129d565b915061180d826117a6565b604082019050919050565b60006020820190508181036000830152611831816117f5565b9050919050565b7f45524332303a207472616e736665722066726f6d20746865207a65726f20616460008201527f6472657373000000000000000000000000000000000000000000000000000000602082015250565b600061189460258361129d565b915061189f82611838565b604082019050919050565b600060208201905081810360008301526118c381611887565b9050919050565b7f45524332303a207472616e7366657220746f20746865207a65726f206164647260008201527f6573730000000000000000000000000000000000000000000000000000000000602082015250565b600061192660238361129d565b9150611931826118ca565b604082019050919050565b6000602082019050818103600083015261195581611919565b9050919050565b7f45524332303a207472616e7366657220616d6f756e742065786365656473206260008201527f616c616e63650000000000000000000000000000000000000000000000000000602082015250565b60006119b860268361129d565b91506119c38261195c565b604082019050919050565b600060208201905081810360008301526119e7816119ab565b9050919050565b7f45524332303a20617070726f76652066726f6d20746865207a65726f2061646460008201527f7265737300000000000000000000000000000000000000000000000000000000602082015250565b6000611a4a60248361129d565b9150611a55826119ee565b604082019050919050565b60006020820190508181036000830152611a7981611a3d565b9050919050565b7f45524332303a20617070726f766520746f20746865207a65726f20616464726560008201527f7373000000000000000000000000000000000000000000000000000000000000602082015250565b6000611adc60228361129d565b9150611ae782611a80565b604082019050919050565b60006020820190508181036000830152611b0b81611acf565b9050919050565b7f45524332303a20696e73756666696369656e7420616c6c6f77616e6365000000600082015250565b6000611b48601d8361129d565b9150611b5382611b12565b602082019050919050565b60006020820190508181036000830152611b7781611b3b565b9050919050565b7f45524332303a206d696e7420746f20746865207a65726f206164647265737300600082015250565b6000611bb4601f8361129d565b9150611bbf82611b7e565b602082019050919050565b60006020820190508181036000830152611be381611ba7565b9050919050565b7f45524332303a206275726e2066726f6d20746865207a65726f2061646472657360008201527f7300000000000000000000000000000000000000000000000000000000000000602082015250565b6000611c4660218361129d565b9150611c5182611bea565b604082019050919050565b60006020820190508181036000830152611c7581611c39565b9050919050565b7f45524332303a206275726e20616d6f756e7420657863656564732062616c616e60008201527f6365000000000000000000000000000000000000000000000000000000000000602082015250565b6000611cd860228361129d565b9150611ce382611c7c565b604082019050919050565b60006020820190508181036000830152611d0781611ccb565b905091905056fea2646970667358221220ae117f59e8b108aae5a3ba09fb453dfc8126d17d20f5b7f7086161acd3c73fe364736f6c63430008090033",
  "immutableReferences": {},
  "source": "// SPDX-License-Identifier: MIT\r\npragma solidity ^0.8.9;\r\n\r\nimport \"@openzeppelin/contracts/token/ERC20/ERC20.sol\";\r\n\r\ncontract ERC20Token is ERC20 {\r\n    constructor(string memory name, string memory symbol,uint256 amount) ERC20(name, symbol) {\r\n\r\n        _mint(msg.sender, amount);\r\n    }\r\n\r\n\r\n    function sendTokens(address recipient, uint256 amount) public {\r\n        require(recipient != address(0), \"Invalid recipient address\");\r\n        require(amount > 0, \"Amount must be greater than zero\");\r\n        require(balanceOf(msg.sender) >= amount, \"Insufficient balance\");\r\n\r\n        _transfer(msg.sender, recipient, amount);\r\n    }\r\n\r\n    function increaseBalance(address account, uint256 amount) public {\r\n        require(account != address(0), \"Invalid address\");\r\n        _mint(account, amount);\r\n    }\r\n\r\n    function decreaseBalance(address account, uint256 amount) public {\r\n        require(account != address(0), \"Invalid address\");\r\n        require(balanceOf(account) >= amount, \"Insufficient balance\");\r\n        _burn(account, amount);\r\n    }\r\n\r\n    function transferFromDifferentAccounts(address from, address to, uint256 amount) public {\r\n        require(from != address(0) && to != address(0), \"Invalid addresses\");\r\n        require(balanceOf(from) >= amount, \"Insufficient balance\");\r\n\r\n        _transfer(from, to, amount);\r\n    }\r\n}\r\n",
  "sourcePath": "C:\\Users\\Online\\Documents\\Lessons\\Project\\NFT_market\\SmartContract\\contracts\\ERC20Token.sol",
  "compiler": {
    "name": "solc",
    "version": "0.8.9+commit.e5eed63a.Emscripten.clang"
  },
  "schemaVersion": "3.4.14",
  "updatedAt": "2023-08-25T08:56:28.647Z",
  "devdoc": {
    "kind": "dev",
    "methods": {
      "allowance(address,address)": {
        "details": "See {IERC20-allowance}."
      },
      "approve(address,uint256)": {
        "details": "See {IERC20-approve}. NOTE: If `amount` is the maximum `uint256`, the allowance is not updated on `transferFrom`. This is semantically equivalent to an infinite approval. Requirements: - `spender` cannot be the zero address."
      },
      "balanceOf(address)": {
        "details": "See {IERC20-balanceOf}."
      },
      "decimals()": {
        "details": "Returns the number of decimals used to get its user representation. For example, if `decimals` equals `2`, a balance of `505` tokens should be displayed to a user as `5.05` (`505 / 10 ** 2`). Tokens usually opt for a value of 18, imitating the relationship between Ether and Wei. This is the default value returned by this function, unless it's overridden. NOTE: This information is only used for _display_ purposes: it in no way affects any of the arithmetic of the contract, including {IERC20-balanceOf} and {IERC20-transfer}."
      },
      "decreaseAllowance(address,uint256)": {
        "details": "Atomically decreases the allowance granted to `spender` by the caller. This is an alternative to {approve} that can be used as a mitigation for problems described in {IERC20-approve}. Emits an {Approval} event indicating the updated allowance. Requirements: - `spender` cannot be the zero address. - `spender` must have allowance for the caller of at least `subtractedValue`."
      },
      "increaseAllowance(address,uint256)": {
        "details": "Atomically increases the allowance granted to `spender` by the caller. This is an alternative to {approve} that can be used as a mitigation for problems described in {IERC20-approve}. Emits an {Approval} event indicating the updated allowance. Requirements: - `spender` cannot be the zero address."
      },
      "name()": {
        "details": "Returns the name of the token."
      },
      "symbol()": {
        "details": "Returns the symbol of the token, usually a shorter version of the name."
      },
      "totalSupply()": {
        "details": "See {IERC20-totalSupply}."
      },
      "transfer(address,uint256)": {
        "details": "See {IERC20-transfer}. Requirements: - `to` cannot be the zero address. - the caller must have a balance of at least `amount`."
      },
      "transferFrom(address,address,uint256)": {
        "details": "See {IERC20-transferFrom}. Emits an {Approval} event indicating the updated allowance. This is not required by the EIP. See the note at the beginning of {ERC20}. NOTE: Does not update the allowance if the current allowance is the maximum `uint256`. Requirements: - `from` and `to` cannot be the zero address. - `from` must have a balance of at least `amount`. - the caller must have allowance for ``from``'s tokens of at least `amount`."
      }
    },
    "version": 1
  },
  "userdoc": {
    "kind": "user",
    "methods": {},
    "version": 1
  }
}