{
  "contractName": "IPFSRegistry",
  "abi": [
    {
      "inputs": [
        {
          "internalType": "string",
          "name": "image_path",
          "type": "string"
        },
        {
          "internalType": "string",
          "name": "description",
          "type": "string"
        },
        {
          "internalType": "uint256",
          "name": "nft_price",
          "type": "uint256"
        },
        {
          "internalType": "string",
          "name": "nft_type",
          "type": "string"
        },
        {
          "internalType": "string",
          "name": "hash",
          "type": "string"
        }
      ],
      "name": "add_IPFS_Hash",
      "outputs": [],
      "stateMutability": "nonpayable",
      "type": "function"
    },
    {
      "inputs": [
        {
          "internalType": "address",
          "name": "_user",
          "type": "address"
        }
      ],
      "name": "get_IPFS_Hashes",
      "outputs": [
        {
          "components": [
            {
              "internalType": "string",
              "name": "image_path",
              "type": "string"
            },
            {
              "internalType": "string",
              "name": "description",
              "type": "string"
            },
            {
              "internalType": "uint256",
              "name": "nft_price",
              "type": "uint256"
            },
            {
              "internalType": "string",
              "name": "nft_type",
              "type": "string"
            },
            {
              "internalType": "string",
              "name": "hash",
              "type": "string"
            }
          ],
          "internalType": "struct IPFSRegistry.IPFS_Struct[]",
          "name": "",
          "type": "tuple[]"
        }
      ],
      "stateMutability": "view",
      "type": "function",
      "constant": true
    }
  ],
  "bytecode": "0x608060405234801561001057600080fd5b50610ba2806100206000396000f3fe608060405234801561001057600080fd5b50600436106100365760003560e01c806375b2d8ed1461003b578063905f689f1461006b575b600080fd5b610055600480360381019061005091906105f4565b610087565b6040516100629190610820565b60405180910390f35b610085600480360381019061008091906109a3565b610379565b005b60606000808373ffffffffffffffffffffffffffffffffffffffff1673ffffffffffffffffffffffffffffffffffffffff168152602001908152602001600020600001805480602002602001604051908101604052809291908181526020016000905b8282101561036e57838290600052602060002090600502016040518060a001604052908160008201805461011d90610abd565b80601f016020809104026020016040519081016040528092919081815260200182805461014990610abd565b80156101965780601f1061016b57610100808354040283529160200191610196565b820191906000526020600020905b81548152906001019060200180831161017957829003601f168201915b505050505081526020016001820180546101af90610abd565b80601f01602080910402602001604051908101604052809291908181526020018280546101db90610abd565b80156102285780601f106101fd57610100808354040283529160200191610228565b820191906000526020600020905b81548152906001019060200180831161020b57829003601f168201915b505050505081526020016002820154815260200160038201805461024b90610abd565b80601f016020809104026020016040519081016040528092919081815260200182805461027790610abd565b80156102c45780601f10610299576101008083540402835291602001916102c4565b820191906000526020600020905b8154815290600101906020018083116102a757829003601f168201915b505050505081526020016004820180546102dd90610abd565b80601f016020809104026020016040519081016040528092919081815260200182805461030990610abd565b80156103565780601f1061032b57610100808354040283529160200191610356565b820191906000526020600020905b81548152906001019060200180831161033957829003601f168201915b505050505081525050815260200190600101906100ea565b505050509050919050565b60006040518060a001604052808781526020018681526020018581526020018481526020018381525090506000816080015151116103ec576040517f08c379a00000000000000000000000000000000000000000000000000000000081526004016103e390610b4c565b60405180910390fd5b6000803373ffffffffffffffffffffffffffffffffffffffff1673ffffffffffffffffffffffffffffffffffffffff16815260200190815260200160002060000181908060018154018082558091505060019003906000526020600020906005020160009091909190915060008201518160000190805190602001906104739291906104df565b5060208201518160010190805190602001906104909291906104df565b506040820151816002015560608201518160030190805190602001906104b79291906104df565b5060808201518160040190805190602001906104d49291906104df565b505050505050505050565b8280546104eb90610abd565b90600052602060002090601f01602090048101928261050d5760008555610554565b82601f1061052657805160ff1916838001178555610554565b82800160010185558215610554579182015b82811115610553578251825591602001919060010190610538565b5b5090506105619190610565565b5090565b5b8082111561057e576000816000905550600101610566565b5090565b6000604051905090565b600080fd5b600080fd5b600073ffffffffffffffffffffffffffffffffffffffff82169050919050565b60006105c182610596565b9050919050565b6105d1816105b6565b81146105dc57600080fd5b50565b6000813590506105ee816105c8565b92915050565b60006020828403121561060a5761060961058c565b5b6000610618848285016105df565b91505092915050565b600081519050919050565b600082825260208201905092915050565b6000819050602082019050919050565b600081519050919050565b600082825260208201905092915050565b60005b8381101561068757808201518184015260208101905061066c565b83811115610696576000848401525b50505050565b6000601f19601f8301169050919050565b60006106b88261064d565b6106c28185610658565b93506106d2818560208601610669565b6106db8161069c565b840191505092915050565b6000819050919050565b6106f9816106e6565b82525050565b600060a083016000830151848203600086015261071c82826106ad565b9150506020830151848203602086015261073682826106ad565b915050604083015161074b60408601826106f0565b506060830151848203606086015261076382826106ad565b9150506080830151848203608086015261077d82826106ad565b9150508091505092915050565b600061079683836106ff565b905092915050565b6000602082019050919050565b60006107b682610621565b6107c0818561062c565b9350836020820285016107d28561063d565b8060005b8581101561080e57848403895281516107ef858261078a565b94506107fa8361079e565b925060208a019950506001810190506107d6565b50829750879550505050505092915050565b6000602082019050818103600083015261083a81846107ab565b905092915050565b600080fd5b600080fd5b7f4e487b7100000000000000000000000000000000000000000000000000000000600052604160045260246000fd5b6108848261069c565b810181811067ffffffffffffffff821117156108a3576108a261084c565b5b80604052505050565b60006108b6610582565b90506108c2828261087b565b919050565b600067ffffffffffffffff8211156108e2576108e161084c565b5b6108eb8261069c565b9050602081019050919050565b82818337600083830152505050565b600061091a610915846108c7565b6108ac565b90508281526020810184848401111561093657610935610847565b5b6109418482856108f8565b509392505050565b600082601f83011261095e5761095d610842565b5b813561096e848260208601610907565b91505092915050565b610980816106e6565b811461098b57600080fd5b50565b60008135905061099d81610977565b92915050565b600080600080600060a086880312156109bf576109be61058c565b5b600086013567ffffffffffffffff8111156109dd576109dc610591565b5b6109e988828901610949565b955050602086013567ffffffffffffffff811115610a0a57610a09610591565b5b610a1688828901610949565b9450506040610a278882890161098e565b935050606086013567ffffffffffffffff811115610a4857610a47610591565b5b610a5488828901610949565b925050608086013567ffffffffffffffff811115610a7557610a74610591565b5b610a8188828901610949565b9150509295509295909350565b7f4e487b7100000000000000000000000000000000000000000000000000000000600052602260045260246000fd5b60006002820490506001821680610ad557607f821691505b60208210811415610ae957610ae8610a8e565b5b50919050565b600082825260208201905092915050565b7f4950465320686173682063616e6e6f7420626520656d70747900000000000000600082015250565b6000610b36601983610aef565b9150610b4182610b00565b602082019050919050565b60006020820190508181036000830152610b6581610b29565b905091905056fea2646970667358221220c4141310b1569e655a9665a3c267578a3779943c732018674f7c3b43617bd98564736f6c63430008090033",
  "immutableReferences": {},
  "source": "// SPDX-License-Identifier: GPL-3.0\r\npragma solidity ^0.8.9;\r\n\r\ncontract IPFSRegistry {\r\n    struct IPFS_Struct{\r\n        string image_path;\r\n        string description;\r\n        uint256 nft_price;\r\n        string nft_type;\r\n        string hash;\r\n    }\r\n    struct UserNFTS{\r\n        IPFS_Struct[] IPFS_Hashes;\r\n    }\r\n    mapping(address => UserNFTS) private userIPFSData;\r\n\r\n    function add_IPFS_Hash(string memory image_path,string memory description,uint256 nft_price,\r\n        string memory nft_type,string memory hash) external {\r\n        IPFS_Struct memory ipfs = IPFS_Struct(image_path,description,nft_price,nft_type,hash);\r\n        require(bytes(ipfs.hash).length > 0,\"IPFS hash cannot be empty\");\r\n        userIPFSData[msg.sender].IPFS_Hashes.push(ipfs);\r\n    }\r\n\r\n    function get_IPFS_Hashes(address _user) external view returns (IPFS_Struct[] memory) {\r\n        return userIPFSData[_user].IPFS_Hashes;\r\n    }\r\n}",
  "sourcePath": "C:\\Users\\Online\\Documents\\Lessons\\Project\\NFT_market\\SmartContract\\contracts\\IPFS.sol",
  "compiler": {
    "name": "solc",
    "version": "0.8.9+commit.e5eed63a.Emscripten.clang"
  },
  "schemaVersion": "3.4.14",
  "updatedAt": "2023-08-12T18:16:06.305Z",
  "networkType": "ethereum",
  "devdoc": {
    "kind": "dev",
    "methods": {},
    "version": 1
  },
  "userdoc": {
    "kind": "user",
    "methods": {},
    "version": 1
  }
}