{
  "contractName": "IPFSRegistry",
  "abi": [
    {
      "inputs": [
        {
          "internalType": "string",
          "name": "image_path",
          "type": "string"
        },
        {
          "internalType": "string",
          "name": "description",
          "type": "string"
        },
        {
          "internalType": "uint256",
          "name": "nft_price",
          "type": "uint256"
        },
        {
          "internalType": "string",
          "name": "nft_type",
          "type": "string"
        },
        {
          "internalType": "string",
          "name": "hash",
          "type": "string"
        },
        {
          "internalType": "address",
          "name": "user_address",
          "type": "address"
        }
      ],
      "name": "add_IPFS_Hash",
      "outputs": [],
      "stateMutability": "nonpayable",
      "type": "function"
    },
    {
      "inputs": [
        {
          "internalType": "address",
          "name": "_user",
          "type": "address"
        }
      ],
      "name": "get_IPFS_Hashes",
      "outputs": [
        {
          "components": [
            {
              "internalType": "string",
              "name": "image_path",
              "type": "string"
            },
            {
              "internalType": "string",
              "name": "description",
              "type": "string"
            },
            {
              "internalType": "uint256",
              "name": "nft_price",
              "type": "uint256"
            },
            {
              "internalType": "string",
              "name": "nft_type",
              "type": "string"
            },
            {
              "internalType": "string",
              "name": "hash",
              "type": "string"
            }
          ],
          "internalType": "struct IPFSRegistry.IPFS_Struct[]",
          "name": "",
          "type": "tuple[]"
        }
      ],
      "stateMutability": "view",
      "type": "function"
    }
  ],
  "bytecode": "0x608060405234801561001057600080fd5b50610af0806100206000396000f3fe608060405234801561001057600080fd5b50600436106100365760003560e01c806375b2d8ed1461003b5780639edb935e1461006b575b600080fd5b610055600480360381019061005091906105ad565b610087565b60405161006291906107d9565b60405180910390f35b6100856004803603810190610080919061095c565b610379565b005b60606000808373ffffffffffffffffffffffffffffffffffffffff1673ffffffffffffffffffffffffffffffffffffffff168152602001908152602001600020600001805480602002602001604051908101604052809291908181526020016000905b8282101561036e57838290600052602060002090600502016040518060a001604052908160008201805461011d90610a88565b80601f016020809104026020016040519081016040528092919081815260200182805461014990610a88565b80156101965780601f1061016b57610100808354040283529160200191610196565b820191906000526020600020905b81548152906001019060200180831161017957829003601f168201915b505050505081526020016001820180546101af90610a88565b80601f01602080910402602001604051908101604052809291908181526020018280546101db90610a88565b80156102285780601f106101fd57610100808354040283529160200191610228565b820191906000526020600020905b81548152906001019060200180831161020b57829003601f168201915b505050505081526020016002820154815260200160038201805461024b90610a88565b80601f016020809104026020016040519081016040528092919081815260200182805461027790610a88565b80156102c45780601f10610299576101008083540402835291602001916102c4565b820191906000526020600020905b8154815290600101906020018083116102a757829003601f168201915b505050505081526020016004820180546102dd90610a88565b80601f016020809104026020016040519081016040528092919081815260200182805461030990610a88565b80156103565780601f1061032b57610100808354040283529160200191610356565b820191906000526020600020905b81548152906001019060200180831161033957829003601f168201915b505050505081525050815260200190600101906100ea565b505050509050919050565b60006040518060a001604052808881526020018781526020018681526020018581526020018481525090506000808373ffffffffffffffffffffffffffffffffffffffff1673ffffffffffffffffffffffffffffffffffffffff168152602001908152602001600020600001819080600181540180825580915050600190039060005260206000209060050201600090919091909150600082015181600001908051906020019061042b929190610498565b506020820151816001019080519060200190610448929190610498565b5060408201518160020155606082015181600301908051906020019061046f929190610498565b50608082015181600401908051906020019061048c929190610498565b50505050505050505050565b8280546104a490610a88565b90600052602060002090601f0160209004810192826104c6576000855561050d565b82601f106104df57805160ff191683800117855561050d565b8280016001018555821561050d579182015b8281111561050c5782518255916020019190600101906104f1565b5b50905061051a919061051e565b5090565b5b8082111561053757600081600090555060010161051f565b5090565b6000604051905090565b600080fd5b600080fd5b600073ffffffffffffffffffffffffffffffffffffffff82169050919050565b600061057a8261054f565b9050919050565b61058a8161056f565b811461059557600080fd5b50565b6000813590506105a781610581565b92915050565b6000602082840312156105c3576105c2610545565b5b60006105d184828501610598565b91505092915050565b600081519050919050565b600082825260208201905092915050565b6000819050602082019050919050565b600081519050919050565b600082825260208201905092915050565b60005b83811015610640578082015181840152602081019050610625565b8381111561064f576000848401525b50505050565b6000601f19601f8301169050919050565b600061067182610606565b61067b8185610611565b935061068b818560208601610622565b61069481610655565b840191505092915050565b6000819050919050565b6106b28161069f565b82525050565b600060a08301600083015184820360008601526106d58282610666565b915050602083015184820360208601526106ef8282610666565b915050604083015161070460408601826106a9565b506060830151848203606086015261071c8282610666565b915050608083015184820360808601526107368282610666565b9150508091505092915050565b600061074f83836106b8565b905092915050565b6000602082019050919050565b600061076f826105da565b61077981856105e5565b93508360208202850161078b856105f6565b8060005b858110156107c757848403895281516107a88582610743565b94506107b383610757565b925060208a0199505060018101905061078f565b50829750879550505050505092915050565b600060208201905081810360008301526107f38184610764565b905092915050565b600080fd5b600080fd5b7f4e487b7100000000000000000000000000000000000000000000000000000000600052604160045260246000fd5b61083d82610655565b810181811067ffffffffffffffff8211171561085c5761085b610805565b5b80604052505050565b600061086f61053b565b905061087b8282610834565b919050565b600067ffffffffffffffff82111561089b5761089a610805565b5b6108a482610655565b9050602081019050919050565b82818337600083830152505050565b60006108d36108ce84610880565b610865565b9050828152602081018484840111156108ef576108ee610800565b5b6108fa8482856108b1565b509392505050565b600082601f830112610917576109166107fb565b5b81356109278482602086016108c0565b91505092915050565b6109398161069f565b811461094457600080fd5b50565b60008135905061095681610930565b92915050565b60008060008060008060c0878903121561097957610978610545565b5b600087013567ffffffffffffffff8111156109975761099661054a565b5b6109a389828a01610902565b965050602087013567ffffffffffffffff8111156109c4576109c361054a565b5b6109d089828a01610902565b95505060406109e189828a01610947565b945050606087013567ffffffffffffffff811115610a0257610a0161054a565b5b610a0e89828a01610902565b935050608087013567ffffffffffffffff811115610a2f57610a2e61054a565b5b610a3b89828a01610902565b92505060a0610a4c89828a01610598565b9150509295509295509295565b7f4e487b7100000000000000000000000000000000000000000000000000000000600052602260045260246000fd5b60006002820490506001821680610aa057607f821691505b60208210811415610ab457610ab3610a59565b5b5091905056fea2646970667358221220b26388569b1b3fb51dbdeba1df01d72a728965c81b0d7c1358e01e587e05d4a664736f6c63430008090033",
  "immutableReferences": {},
  "source": "// SPDX-License-Identifier: GPL-3.0\r\npragma solidity ^0.8.9;\r\n\r\ncontract IPFSRegistry {\r\n    struct IPFS_Struct{\r\n        string image_path;\r\n        string description;\r\n        uint256 nft_price;\r\n        string nft_type;\r\n        string hash;\r\n    }\r\n    struct UserNFTS{\r\n        IPFS_Struct[] IPFS_Hashes;\r\n    }\r\n    mapping(address => UserNFTS) private userIPFSData;\r\n\r\n    function add_IPFS_Hash(string memory image_path,string memory description,uint256 nft_price,\r\n        string memory nft_type,string memory hash,address user_address) external {\r\n        IPFS_Struct memory ipfs = IPFS_Struct(image_path,description,nft_price,nft_type,hash);\r\n        userIPFSData[user_address].IPFS_Hashes.push(ipfs);\r\n    }\r\n\r\n    function get_IPFS_Hashes(address _user) external view returns (IPFS_Struct[] memory) {\r\n        return userIPFSData[_user].IPFS_Hashes;\r\n    }\r\n}",
  "sourcePath": "C:\\Users\\Online\\Documents\\Lessons\\Project\\NFT_market\\SmartContract\\contracts\\IPFS.sol",
  "compiler": {
    "name": "solc",
    "version": "0.8.9+commit.e5eed63a.Emscripten.clang"
  },
  "schemaVersion": "3.4.14",
  "updatedAt": "2023-08-25T08:56:28.688Z",
  "devdoc": {
    "kind": "dev",
    "methods": {},
    "version": 1
  },
  "userdoc": {
    "kind": "user",
    "methods": {},
    "version": 1
  }
}