{
  "contractName": "IRProperty",
  "abi": [
    {
      "inputs": [],
      "stateMutability": "nonpayable",
      "type": "constructor"
    },
    {
      "inputs": [],
      "name": "InvalidShortString",
      "type": "error"
    },
    {
      "inputs": [
        {
          "internalType": "string",
          "name": "str",
          "type": "string"
        }
      ],
      "name": "StringTooLong",
      "type": "error"
    },
    {
      "anonymous": false,
      "inputs": [
        {
          "indexed": true,
          "internalType": "address",
          "name": "owner",
          "type": "address"
        },
        {
          "indexed": true,
          "internalType": "address",
          "name": "approved",
          "type": "address"
        },
        {
          "indexed": true,
          "internalType": "uint256",
          "name": "tokenId",
          "type": "uint256"
        }
      ],
      "name": "Approval",
      "type": "event"
    },
    {
      "anonymous": false,
      "inputs": [
        {
          "indexed": true,
          "internalType": "address",
          "name": "owner",
          "type": "address"
        },
        {
          "indexed": true,
          "internalType": "address",
          "name": "operator",
          "type": "address"
        },
        {
          "indexed": false,
          "internalType": "bool",
          "name": "approved",
          "type": "bool"
        }
      ],
      "name": "ApprovalForAll",
      "type": "event"
    },
    {
      "anonymous": false,
      "inputs": [
        {
          "indexed": false,
          "internalType": "uint256",
          "name": "_fromTokenId",
          "type": "uint256"
        },
        {
          "indexed": false,
          "internalType": "uint256",
          "name": "_toTokenId",
          "type": "uint256"
        }
      ],
      "name": "BatchMetadataUpdate",
      "type": "event"
    },
    {
      "anonymous": false,
      "inputs": [
        {
          "indexed": true,
          "internalType": "address",
          "name": "delegator",
          "type": "address"
        },
        {
          "indexed": true,
          "internalType": "address",
          "name": "fromDelegate",
          "type": "address"
        },
        {
          "indexed": true,
          "internalType": "address",
          "name": "toDelegate",
          "type": "address"
        }
      ],
      "name": "DelegateChanged",
      "type": "event"
    },
    {
      "anonymous": false,
      "inputs": [
        {
          "indexed": true,
          "internalType": "address",
          "name": "delegate",
          "type": "address"
        },
        {
          "indexed": false,
          "internalType": "uint256",
          "name": "previousBalance",
          "type": "uint256"
        },
        {
          "indexed": false,
          "internalType": "uint256",
          "name": "newBalance",
          "type": "uint256"
        }
      ],
      "name": "DelegateVotesChanged",
      "type": "event"
    },
    {
      "anonymous": false,
      "inputs": [],
      "name": "EIP712DomainChanged",
      "type": "event"
    },
    {
      "anonymous": false,
      "inputs": [
        {
          "indexed": false,
          "internalType": "uint256",
          "name": "_tokenId",
          "type": "uint256"
        }
      ],
      "name": "MetadataUpdate",
      "type": "event"
    },
    {
      "anonymous": false,
      "inputs": [
        {
          "indexed": true,
          "internalType": "address",
          "name": "previousOwner",
          "type": "address"
        },
        {
          "indexed": true,
          "internalType": "address",
          "name": "newOwner",
          "type": "address"
        }
      ],
      "name": "OwnershipTransferred",
      "type": "event"
    },
    {
      "anonymous": false,
      "inputs": [
        {
          "indexed": true,
          "internalType": "address",
          "name": "from",
          "type": "address"
        },
        {
          "indexed": true,
          "internalType": "address",
          "name": "to",
          "type": "address"
        },
        {
          "indexed": true,
          "internalType": "uint256",
          "name": "tokenId",
          "type": "uint256"
        }
      ],
      "name": "Transfer",
      "type": "event"
    },
    {
      "inputs": [],
      "name": "CLOCK_MODE",
      "outputs": [
        {
          "internalType": "string",
          "name": "",
          "type": "string"
        }
      ],
      "stateMutability": "view",
      "type": "function"
    },
    {
      "inputs": [],
      "name": "DOMAIN_SEPARATOR",
      "outputs": [
        {
          "internalType": "bytes32",
          "name": "",
          "type": "bytes32"
        }
      ],
      "stateMutability": "view",
      "type": "function"
    },
    {
      "inputs": [
        {
          "internalType": "address",
          "name": "to",
          "type": "address"
        },
        {
          "internalType": "uint256",
          "name": "tokenId",
          "type": "uint256"
        }
      ],
      "name": "approve",
      "outputs": [],
      "stateMutability": "nonpayable",
      "type": "function"
    },
    {
      "inputs": [
        {
          "internalType": "address",
          "name": "owner",
          "type": "address"
        }
      ],
      "name": "balanceOf",
      "outputs": [
        {
          "internalType": "uint256",
          "name": "",
          "type": "uint256"
        }
      ],
      "stateMutability": "view",
      "type": "function"
    },
    {
      "inputs": [],
      "name": "clock",
      "outputs": [
        {
          "internalType": "uint48",
          "name": "",
          "type": "uint48"
        }
      ],
      "stateMutability": "view",
      "type": "function"
    },
    {
      "inputs": [
        {
          "internalType": "address",
          "name": "delegatee",
          "type": "address"
        }
      ],
      "name": "delegate",
      "outputs": [],
      "stateMutability": "nonpayable",
      "type": "function"
    },
    {
      "inputs": [
        {
          "internalType": "address",
          "name": "delegatee",
          "type": "address"
        },
        {
          "internalType": "uint256",
          "name": "nonce",
          "type": "uint256"
        },
        {
          "internalType": "uint256",
          "name": "expiry",
          "type": "uint256"
        },
        {
          "internalType": "uint8",
          "name": "v",
          "type": "uint8"
        },
        {
          "internalType": "bytes32",
          "name": "r",
          "type": "bytes32"
        },
        {
          "internalType": "bytes32",
          "name": "s",
          "type": "bytes32"
        }
      ],
      "name": "delegateBySig",
      "outputs": [],
      "stateMutability": "nonpayable",
      "type": "function"
    },
    {
      "inputs": [
        {
          "internalType": "address",
          "name": "account",
          "type": "address"
        }
      ],
      "name": "delegates",
      "outputs": [
        {
          "internalType": "address",
          "name": "",
          "type": "address"
        }
      ],
      "stateMutability": "view",
      "type": "function"
    },
    {
      "inputs": [],
      "name": "eip712Domain",
      "outputs": [
        {
          "internalType": "bytes1",
          "name": "fields",
          "type": "bytes1"
        },
        {
          "internalType": "string",
          "name": "name",
          "type": "string"
        },
        {
          "internalType": "string",
          "name": "version",
          "type": "string"
        },
        {
          "internalType": "uint256",
          "name": "chainId",
          "type": "uint256"
        },
        {
          "internalType": "address",
          "name": "verifyingContract",
          "type": "address"
        },
        {
          "internalType": "bytes32",
          "name": "salt",
          "type": "bytes32"
        },
        {
          "internalType": "uint256[]",
          "name": "extensions",
          "type": "uint256[]"
        }
      ],
      "stateMutability": "view",
      "type": "function"
    },
    {
      "inputs": [
        {
          "internalType": "uint256",
          "name": "tokenId",
          "type": "uint256"
        }
      ],
      "name": "getApproved",
      "outputs": [
        {
          "internalType": "address",
          "name": "",
          "type": "address"
        }
      ],
      "stateMutability": "view",
      "type": "function"
    },
    {
      "inputs": [
        {
          "internalType": "uint256",
          "name": "timepoint",
          "type": "uint256"
        }
      ],
      "name": "getPastTotalSupply",
      "outputs": [
        {
          "internalType": "uint256",
          "name": "",
          "type": "uint256"
        }
      ],
      "stateMutability": "view",
      "type": "function"
    },
    {
      "inputs": [
        {
          "internalType": "address",
          "name": "account",
          "type": "address"
        },
        {
          "internalType": "uint256",
          "name": "timepoint",
          "type": "uint256"
        }
      ],
      "name": "getPastVotes",
      "outputs": [
        {
          "internalType": "uint256",
          "name": "",
          "type": "uint256"
        }
      ],
      "stateMutability": "view",
      "type": "function"
    },
    {
      "inputs": [
        {
          "internalType": "address",
          "name": "account",
          "type": "address"
        }
      ],
      "name": "getVotes",
      "outputs": [
        {
          "internalType": "uint256",
          "name": "",
          "type": "uint256"
        }
      ],
      "stateMutability": "view",
      "type": "function"
    },
    {
      "inputs": [
        {
          "internalType": "address",
          "name": "owner",
          "type": "address"
        },
        {
          "internalType": "address",
          "name": "operator",
          "type": "address"
        }
      ],
      "name": "isApprovedForAll",
      "outputs": [
        {
          "internalType": "bool",
          "name": "",
          "type": "bool"
        }
      ],
      "stateMutability": "view",
      "type": "function"
    },
    {
      "inputs": [],
      "name": "name",
      "outputs": [
        {
          "internalType": "string",
          "name": "",
          "type": "string"
        }
      ],
      "stateMutability": "view",
      "type": "function"
    },
    {
      "inputs": [
        {
          "internalType": "address",
          "name": "owner",
          "type": "address"
        }
      ],
      "name": "nonces",
      "outputs": [
        {
          "internalType": "uint256",
          "name": "",
          "type": "uint256"
        }
      ],
      "stateMutability": "view",
      "type": "function"
    },
    {
      "inputs": [],
      "name": "owner",
      "outputs": [
        {
          "internalType": "address",
          "name": "",
          "type": "address"
        }
      ],
      "stateMutability": "view",
      "type": "function"
    },
    {
      "inputs": [
        {
          "internalType": "uint256",
          "name": "tokenId",
          "type": "uint256"
        }
      ],
      "name": "ownerOf",
      "outputs": [
        {
          "internalType": "address",
          "name": "",
          "type": "address"
        }
      ],
      "stateMutability": "view",
      "type": "function"
    },
    {
      "inputs": [],
      "name": "renounceOwnership",
      "outputs": [],
      "stateMutability": "nonpayable",
      "type": "function"
    },
    {
      "inputs": [
        {
          "internalType": "address",
          "name": "from",
          "type": "address"
        },
        {
          "internalType": "address",
          "name": "to",
          "type": "address"
        },
        {
          "internalType": "uint256",
          "name": "tokenId",
          "type": "uint256"
        }
      ],
      "name": "safeTransferFrom",
      "outputs": [],
      "stateMutability": "nonpayable",
      "type": "function"
    },
    {
      "inputs": [
        {
          "internalType": "address",
          "name": "from",
          "type": "address"
        },
        {
          "internalType": "address",
          "name": "to",
          "type": "address"
        },
        {
          "internalType": "uint256",
          "name": "tokenId",
          "type": "uint256"
        },
        {
          "internalType": "bytes",
          "name": "data",
          "type": "bytes"
        }
      ],
      "name": "safeTransferFrom",
      "outputs": [],
      "stateMutability": "nonpayable",
      "type": "function"
    },
    {
      "inputs": [
        {
          "internalType": "address",
          "name": "operator",
          "type": "address"
        },
        {
          "internalType": "bool",
          "name": "approved",
          "type": "bool"
        }
      ],
      "name": "setApprovalForAll",
      "outputs": [],
      "stateMutability": "nonpayable",
      "type": "function"
    },
    {
      "inputs": [],
      "name": "symbol",
      "outputs": [
        {
          "internalType": "string",
          "name": "",
          "type": "string"
        }
      ],
      "stateMutability": "view",
      "type": "function"
    },
    {
      "inputs": [
        {
          "internalType": "uint256",
          "name": "index",
          "type": "uint256"
        }
      ],
      "name": "tokenByIndex",
      "outputs": [
        {
          "internalType": "uint256",
          "name": "",
          "type": "uint256"
        }
      ],
      "stateMutability": "view",
      "type": "function"
    },
    {
      "inputs": [
        {
          "internalType": "address",
          "name": "owner",
          "type": "address"
        },
        {
          "internalType": "uint256",
          "name": "index",
          "type": "uint256"
        }
      ],
      "name": "tokenOfOwnerByIndex",
      "outputs": [
        {
          "internalType": "uint256",
          "name": "",
          "type": "uint256"
        }
      ],
      "stateMutability": "view",
      "type": "function"
    },
    {
      "inputs": [],
      "name": "totalSupply",
      "outputs": [
        {
          "internalType": "uint256",
          "name": "",
          "type": "uint256"
        }
      ],
      "stateMutability": "view",
      "type": "function"
    },
    {
      "inputs": [
        {
          "internalType": "address",
          "name": "from",
          "type": "address"
        },
        {
          "internalType": "address",
          "name": "to",
          "type": "address"
        },
        {
          "internalType": "uint256",
          "name": "tokenId",
          "type": "uint256"
        }
      ],
      "name": "transferFrom",
      "outputs": [],
      "stateMutability": "nonpayable",
      "type": "function"
    },
    {
      "inputs": [
        {
          "internalType": "address",
          "name": "newOwner",
          "type": "address"
        }
      ],
      "name": "transferOwnership",
      "outputs": [],
      "stateMutability": "nonpayable",
      "type": "function"
    },
    {
      "inputs": [
        {
          "internalType": "address",
          "name": "to",
          "type": "address"
        },
        {
          "internalType": "string",
          "name": "uri",
          "type": "string"
        }
      ],
      "name": "safeMint",
      "outputs": [],
      "stateMutability": "nonpayable",
      "type": "function"
    },
    {
      "inputs": [
        {
          "internalType": "uint256",
          "name": "tokenId",
          "type": "uint256"
        }
      ],
      "name": "tokenURI",
      "outputs": [
        {
          "internalType": "string",
          "name": "",
          "type": "string"
        }
      ],
      "stateMutability": "view",
      "type": "function"
    },
    {
      "inputs": [
        {
          "internalType": "bytes4",
          "name": "interfaceId",
          "type": "bytes4"
        }
      ],
      "name": "supportsInterface",
      "outputs": [
        {
          "internalType": "bool",
          "name": "",
          "type": "bool"
        }
      ],
      "stateMutability": "view",
      "type": "function"
    }
  ],
  "bytecode": "0x6101606040523480156200001257600080fd5b506040518060400160405280600b81526020017f49522070726f70657274790000000000000000000000000000000000000000008152506040518060400160405280600181526020017f31000000000000000000000000000000000000000000000000000000000000008152506040518060400160405280600b81526020017f49522070726f70657274790000000000000000000000000000000000000000008152506040518060400160405280600381526020017f495250000000000000000000000000000000000000000000000000000000000081525081600090805190602001906200010392919062000405565b5080600190805190602001906200011c92919062000405565b5050506200013f62000133620001ff60201b60201c565b6200020760201b60201c565b6200015a600c83620002cd60201b6200133f1790919060201c565b61012081815250506200017d600d82620002cd60201b6200133f1790919060201c565b6101408181525050818051906020012060e08181525050808051906020012061010081815250504660a08181525050620001bc6200033160201b60201c565b608081815250503073ffffffffffffffffffffffffffffffffffffffff1660c08173ffffffffffffffffffffffffffffffffffffffff1681525050505062000769565b600033905090565b6000600b60009054906101000a900473ffffffffffffffffffffffffffffffffffffffff16905081600b60006101000a81548173ffffffffffffffffffffffffffffffffffffffff021916908373ffffffffffffffffffffffffffffffffffffffff1602179055508173ffffffffffffffffffffffffffffffffffffffff168173ffffffffffffffffffffffffffffffffffffffff167f8be0079c531659141344cd1fd0a4f28419497f9722a3daafe3b4186f6b6457e060405160405180910390a35050565b6000602083511015620002f357620002eb836200038e60201b60201c565b90506200032b565b826200030a83620003fb60201b6200138a1760201c565b60000190805190602001906200032292919062000405565b5060ff60001b90505b92915050565b60007f8b73c3c69bb8fe3d512ecc4cf759cc79239f7b179b0ffacaa9a75d522b39400f60e0516101005146306040516020016200037395949392919062000530565b60405160208183030381529060405280519060200120905090565b600080829050601f81511115620003de57826040517f305a27a9000000000000000000000000000000000000000000000000000000008152600401620003d5919062000631565b60405180910390fd5b805181620003ec9062000694565b60001c1760001b915050919050565b6000819050919050565b828054620004139062000733565b90600052602060002090601f01602090048101928262000437576000855562000483565b82601f106200045257805160ff191683800117855562000483565b8280016001018555821562000483579182015b828111156200048257825182559160200191906001019062000465565b5b50905062000492919062000496565b5090565b5b80821115620004b157600081600090555060010162000497565b5090565b6000819050919050565b620004ca81620004b5565b82525050565b6000819050919050565b620004e581620004d0565b82525050565b600073ffffffffffffffffffffffffffffffffffffffff82169050919050565b60006200051882620004eb565b9050919050565b6200052a816200050b565b82525050565b600060a082019050620005476000830188620004bf565b620005566020830187620004bf565b620005656040830186620004bf565b620005746060830185620004da565b6200058360808301846200051f565b9695505050505050565b600081519050919050565b600082825260208201905092915050565b60005b83811015620005c9578082015181840152602081019050620005ac565b83811115620005d9576000848401525b50505050565b6000601f19601f8301169050919050565b6000620005fd826200058d565b62000609818562000598565b93506200061b818560208601620005a9565b6200062681620005df565b840191505092915050565b600060208201905081810360008301526200064d8184620005f0565b905092915050565b600081519050919050565b6000819050602082019050919050565b60006200067e8251620004b5565b80915050919050565b600082821b905092915050565b6000620006a18262000655565b82620006ad8462000660565b9050620006ba8162000670565b92506020821015620006fd57620006f87fffffffffffffffffffffffffffffffffffffffffffffffffffffffffffffffff8360200360080262000687565b831692505b5050919050565b7f4e487b7100000000000000000000000000000000000000000000000000000000600052602260045260246000fd5b600060028204905060018216806200074c57607f821691505b6020821081141562000763576200076262000704565b5b50919050565b60805160a05160c05160e051610100516101205161014051615ddb620007c46000396000610dd701526000610da30152600061248d0152600061246c01526000611894015260006118ea015260006119130152615ddb6000f3fe608060405234801561001057600080fd5b50600436106101e55760003560e01c806370a082311161010f5780639ab24eb0116100a2578063c87b56dd11610071578063c87b56dd146105be578063d204c45e146105ee578063e985e9c51461060a578063f2fde38b1461063a576101e5565b80639ab24eb01461053a578063a22cb4651461056a578063b88d4fde14610586578063c3cda520146105a2576101e5565b80638da5cb5b116100de5780638da5cb5b146104b05780638e539e8c146104ce57806391ddadf4146104fe57806395d89b411461051c576101e5565b806370a0823114610422578063715018a6146104525780637ecebe001461045c57806384b0196e1461048c576101e5565b80633644e515116101875780634f6ccce7116101565780634f6ccce714610376578063587cde1e146103a65780635c19a95c146103d65780636352211e146103f2576101e5565b80633644e515146102ee5780633a46b1a81461030c57806342842e0e1461033c5780634bf5d7e914610358576101e5565b8063095ea7b3116101c3578063095ea7b31461026857806318160ddd1461028457806323b872dd146102a25780632f745c59146102be576101e5565b806301ffc9a7146101ea57806306fdde031461021a578063081812fc14610238575b600080fd5b61020460048036038101906101ff919061409c565b610656565b60405161021191906140e4565b60405180910390f35b610222610668565b60405161022f9190614198565b60405180910390f35b610252600480360381019061024d91906141f0565b6106fa565b60405161025f919061425e565b60405180910390f35b610282600480360381019061027d91906142a5565b610740565b005b61028c610858565b60405161029991906142f4565b60405180910390f35b6102bc60048036038101906102b7919061430f565b610865565b005b6102d860048036038101906102d391906142a5565b6108c5565b6040516102e591906142f4565b60405180910390f35b6102f661096a565b604051610303919061437b565b60405180910390f35b610326600480360381019061032191906142a5565b610979565b60405161033391906142f4565b60405180910390f35b6103566004803603810190610351919061430f565b610a4b565b005b610360610a6b565b60405161036d9190614198565b60405180910390f35b610390600480360381019061038b91906141f0565b610af9565b60405161039d91906142f4565b60405180910390f35b6103c060048036038101906103bb9190614396565b610b6a565b6040516103cd919061425e565b60405180910390f35b6103f060048036038101906103eb9190614396565b610bd3565b005b61040c600480360381019061040791906141f0565b610bed565b604051610419919061425e565b60405180910390f35b61043c60048036038101906104379190614396565b610c74565b60405161044991906142f4565b60405180910390f35b61045a610d2c565b005b61047660048036038101906104719190614396565b610d40565b60405161048391906142f4565b60405180910390f35b610494610d90565b6040516104a797969594939291906144bc565b60405180910390f35b6104b8610e92565b6040516104c5919061425e565b60405180910390f35b6104e860048036038101906104e391906141f0565b610ebc565b6040516104f591906142f4565b60405180910390f35b610506610f50565b6040516105139190614561565b60405180910390f35b610524610f60565b6040516105319190614198565b60405180910390f35b610554600480360381019061054f9190614396565b610ff2565b60405161056191906142f4565b60405180910390f35b610584600480360381019061057f91906145a8565b611060565b005b6105a0600480360381019061059b919061471d565b611076565b005b6105bc60048036038101906105b79190614805565b6110d8565b005b6105d860048036038101906105d391906141f0565b6111dc565b6040516105e59190614198565b60405180910390f35b61060860048036038101906106039190614933565b6111ee565b005b610624600480360381019061061f919061498f565b611227565b60405161063191906140e4565b60405180910390f35b610654600480360381019061064f9190614396565b6112bb565b005b600061066182611394565b9050919050565b606060008054610677906149fe565b80601f01602080910402602001604051908101604052809291908181526020018280546106a3906149fe565b80156106f05780601f106106c5576101008083540402835291602001916106f0565b820191906000526020600020905b8154815290600101906020018083116106d357829003601f168201915b5050505050905090565b6000610705826113f5565b6004600083815260200190815260200160002060009054906101000a900473ffffffffffffffffffffffffffffffffffffffff169050919050565b600061074b82610bed565b90508073ffffffffffffffffffffffffffffffffffffffff168373ffffffffffffffffffffffffffffffffffffffff1614156107bc576040517f08c379a00000000000000000000000000000000000000000000000000000000081526004016107b390614aa2565b60405180910390fd5b8073ffffffffffffffffffffffffffffffffffffffff166107db611440565b73ffffffffffffffffffffffffffffffffffffffff16148061080a575061080981610804611440565b611227565b5b610849576040517f08c379a000000000000000000000000000000000000000000000000000000000815260040161084090614b34565b60405180910390fd5b6108538383611448565b505050565b6000600880549050905090565b610876610870611440565b82611501565b6108b5576040517f08c379a00000000000000000000000000000000000000000000000000000000081526004016108ac90614bc6565b60405180910390fd5b6108c0838383611596565b505050565b60006108d083610c74565b8210610911576040517f08c379a000000000000000000000000000000000000000000000000000000000815260040161090890614c58565b60405180910390fd5b600660008473ffffffffffffffffffffffffffffffffffffffff1673ffffffffffffffffffffffffffffffffffffffff168152602001908152602001600020600083815260200190815260200160002054905092915050565b6000610974611890565b905090565b6000610983610f50565b65ffffffffffff1682106109cc576040517f08c379a00000000000000000000000000000000000000000000000000000000081526004016109c390614cc4565b60405180910390fd5b610a256109d883611947565b600f60008673ffffffffffffffffffffffffffffffffffffffff1673ffffffffffffffffffffffffffffffffffffffff16815260200190815260200160002061199a90919063ffffffff16565b7bffffffffffffffffffffffffffffffffffffffffffffffffffffffff16905092915050565b610a6683838360405180602001604052806000815250611076565b505050565b606043610a76610f50565b65ffffffffffff1614610abe576040517f08c379a0000000000000000000000000000000000000000000000000000000008152600401610ab590614d30565b60405180910390fd5b6040518060400160405280601d81526020017f6d6f64653d626c6f636b6e756d6265722666726f6d3d64656661756c74000000815250905090565b6000610b03610858565b8210610b44576040517f08c379a0000000000000000000000000000000000000000000000000000000008152600401610b3b90614dc2565b60405180910390fd5b60088281548110610b5857610b57614de2565b5b90600052602060002001549050919050565b6000600e60008373ffffffffffffffffffffffffffffffffffffffff1673ffffffffffffffffffffffffffffffffffffffff16815260200190815260200160002060009054906101000a900473ffffffffffffffffffffffffffffffffffffffff169050919050565b6000610bdd611440565b9050610be98183611a90565b5050565b600080610bf983611ba4565b9050600073ffffffffffffffffffffffffffffffffffffffff168173ffffffffffffffffffffffffffffffffffffffff161415610c6b576040517f08c379a0000000000000000000000000000000000000000000000000000000008152600401610c6290614e5d565b60405180910390fd5b80915050919050565b60008073ffffffffffffffffffffffffffffffffffffffff168273ffffffffffffffffffffffffffffffffffffffff161415610ce5576040517f08c379a0000000000000000000000000000000000000000000000000000000008152600401610cdc90614eef565b60405180910390fd5b600360008373ffffffffffffffffffffffffffffffffffffffff1673ffffffffffffffffffffffffffffffffffffffff168152602001908152602001600020549050919050565b610d34611be1565b610d3e6000611c5f565b565b6000610d89601160008473ffffffffffffffffffffffffffffffffffffffff1673ffffffffffffffffffffffffffffffffffffffff168152602001908152602001600020611d25565b9050919050565b600060608060008060006060610dd0600c7f0000000000000000000000000000000000000000000000000000000000000000611d3390919063ffffffff16565b610e04600d7f0000000000000000000000000000000000000000000000000000000000000000611d3390919063ffffffff16565b46306000801b600067ffffffffffffffff811115610e2557610e246145f2565b5b604051908082528060200260200182016040528015610e535781602001602082028036833780820191505090505b507f0f00000000000000000000000000000000000000000000000000000000000000959493929190965096509650965096509650965090919293949596565b6000600b60009054906101000a900473ffffffffffffffffffffffffffffffffffffffff16905090565b6000610ec6610f50565b65ffffffffffff168210610f0f576040517f08c379a0000000000000000000000000000000000000000000000000000000008152600401610f0690614cc4565b60405180910390fd5b610f2b610f1b83611947565b601061199a90919063ffffffff16565b7bffffffffffffffffffffffffffffffffffffffffffffffffffffffff169050919050565b6000610f5b43611de3565b905090565b606060018054610f6f906149fe565b80601f0160208091040260200160405190810160405280929190818152602001828054610f9b906149fe565b8015610fe85780601f10610fbd57610100808354040283529160200191610fe8565b820191906000526020600020905b815481529060010190602001808311610fcb57829003601f168201915b5050505050905090565b600061103b600f60008473ffffffffffffffffffffffffffffffffffffffff1673ffffffffffffffffffffffffffffffffffffffff168152602001908152602001600020611e38565b7bffffffffffffffffffffffffffffffffffffffffffffffffffffffff169050919050565b61107261106b611440565b8383611ea2565b5050565b611087611081611440565b83611501565b6110c6576040517f08c379a00000000000000000000000000000000000000000000000000000000081526004016110bd90614bc6565b60405180910390fd5b6110d28484848461200f565b50505050565b8342111561111b576040517f08c379a000000000000000000000000000000000000000000000000000000000815260040161111290614f5b565b60405180910390fd5b600061117d6111757fe48329057bfd03d55e49b547132e39cffd9c1820ad7b9d4c5307691425d15adf89898960405160200161115a9493929190614f7b565b6040516020818303038152906040528051906020012061206b565b858585612085565b9050611188816120b0565b86146111c9576040517f08c379a00000000000000000000000000000000000000000000000000000000081526004016111c09061500c565b60405180910390fd5b6111d38188611a90565b50505050505050565b60606111e78261210e565b9050919050565b6111f6611be1565b60006112026012611d25565b905061120e6012612221565b6112188382612237565b6112228183612255565b505050565b6000600560008473ffffffffffffffffffffffffffffffffffffffff1673ffffffffffffffffffffffffffffffffffffffff16815260200190815260200160002060008373ffffffffffffffffffffffffffffffffffffffff1673ffffffffffffffffffffffffffffffffffffffff16815260200190815260200160002060009054906101000a900460ff16905092915050565b6112c3611be1565b600073ffffffffffffffffffffffffffffffffffffffff168173ffffffffffffffffffffffffffffffffffffffff161415611333576040517f08c379a000000000000000000000000000000000000000000000000000000000815260040161132a9061509e565b60405180910390fd5b61133c81611c5f565b50565b600060208351101561135b5761135483612300565b9050611384565b826113658361138a565b600001908051906020019061137b929190613f8d565b5060ff60001b90505b92915050565b6000819050919050565b6000634906490660e01b7bffffffffffffffffffffffffffffffffffffffffffffffffffffffff1916827bffffffffffffffffffffffffffffffffffffffffffffffffffffffff191614806113ee57506113ed82612368565b5b9050919050565b6113fe816123e2565b61143d576040517f08c379a000000000000000000000000000000000000000000000000000000000815260040161143490614e5d565b60405180910390fd5b50565b600033905090565b816004600083815260200190815260200160002060006101000a81548173ffffffffffffffffffffffffffffffffffffffff021916908373ffffffffffffffffffffffffffffffffffffffff160217905550808273ffffffffffffffffffffffffffffffffffffffff166114bb83610bed565b73ffffffffffffffffffffffffffffffffffffffff167f8c5be1e5ebec7d5bd14f71427d1e84f3dd0314c0f7b2291e5b200ac8c7c3b92560405160405180910390a45050565b60008061150d83610bed565b90508073ffffffffffffffffffffffffffffffffffffffff168473ffffffffffffffffffffffffffffffffffffffff16148061154f575061154e8185611227565b5b8061158d57508373ffffffffffffffffffffffffffffffffffffffff16611575846106fa565b73ffffffffffffffffffffffffffffffffffffffff16145b91505092915050565b8273ffffffffffffffffffffffffffffffffffffffff166115b682610bed565b73ffffffffffffffffffffffffffffffffffffffff161461160c576040517f08c379a000000000000000000000000000000000000000000000000000000000815260040161160390615130565b60405180910390fd5b600073ffffffffffffffffffffffffffffffffffffffff168273ffffffffffffffffffffffffffffffffffffffff16141561167c576040517f08c379a0000000000000000000000000000000000000000000000000000000008152600401611673906151c2565b60405180910390fd5b6116898383836001612423565b8273ffffffffffffffffffffffffffffffffffffffff166116a982610bed565b73ffffffffffffffffffffffffffffffffffffffff16146116ff576040517f08c379a00000000000000000000000000000000000000000000000000000000081526004016116f690615130565b60405180910390fd5b6004600082815260200190815260200160002060006101000a81549073ffffffffffffffffffffffffffffffffffffffff02191690556001600360008573ffffffffffffffffffffffffffffffffffffffff1673ffffffffffffffffffffffffffffffffffffffff168152602001908152602001600020600082825403925050819055506001600360008473ffffffffffffffffffffffffffffffffffffffff1673ffffffffffffffffffffffffffffffffffffffff16815260200190815260200160002060008282540192505081905550816002600083815260200190815260200160002060006101000a81548173ffffffffffffffffffffffffffffffffffffffff021916908373ffffffffffffffffffffffffffffffffffffffff160217905550808273ffffffffffffffffffffffffffffffffffffffff168473ffffffffffffffffffffffffffffffffffffffff167fddf252ad1be2c89b69c2b068fc378daa952ba7f163c4a11628f55a4df523b3ef60405160405180910390a461188b8383836001612435565b505050565b60007f000000000000000000000000000000000000000000000000000000000000000073ffffffffffffffffffffffffffffffffffffffff163073ffffffffffffffffffffffffffffffffffffffff1614801561190c57507f000000000000000000000000000000000000000000000000000000000000000046145b15611939577f00000000000000000000000000000000000000000000000000000000000000009050611944565b611941612447565b90505b90565b600063ffffffff8016821115611992576040517f08c379a000000000000000000000000000000000000000000000000000000000815260040161198990615254565b60405180910390fd5b819050919050565b600080836000018054905090506000808290506005831115611a1c5760006119c1846124dd565b846119cc91906152a3565b90506119db87600001826125d7565b60000160009054906101000a900463ffffffff1663ffffffff168663ffffffff161015611a0a57809150611a1a565b600181611a1791906152d7565b92505b505b6000611a2d876000018785856125ec565b905060008114611a8157611a5087600001600183611a4b91906152a3565b6125d7565b60000160049054906101000a90047bffffffffffffffffffffffffffffffffffffffffffffffffffffffff16611a84565b60005b94505050505092915050565b6000611a9b83610b6a565b905081600e60008573ffffffffffffffffffffffffffffffffffffffff1673ffffffffffffffffffffffffffffffffffffffff16815260200190815260200160002060006101000a81548173ffffffffffffffffffffffffffffffffffffffff021916908373ffffffffffffffffffffffffffffffffffffffff1602179055508173ffffffffffffffffffffffffffffffffffffffff168173ffffffffffffffffffffffffffffffffffffffff168473ffffffffffffffffffffffffffffffffffffffff167f3134e8a2e6d97e929a7e54011ea5485d7d196dd5f0ba4d4ef95803e8e3fc257f60405160405180910390a4611b9f8183611b9a8661265f565b612671565b505050565b60006002600083815260200190815260200160002060009054906101000a900473ffffffffffffffffffffffffffffffffffffffff169050919050565b611be9611440565b73ffffffffffffffffffffffffffffffffffffffff16611c07610e92565b73ffffffffffffffffffffffffffffffffffffffff1614611c5d576040517f08c379a0000000000000000000000000000000000000000000000000000000008152600401611c5490615379565b60405180910390fd5b565b6000600b60009054906101000a900473ffffffffffffffffffffffffffffffffffffffff16905081600b60006101000a81548173ffffffffffffffffffffffffffffffffffffffff021916908373ffffffffffffffffffffffffffffffffffffffff1602179055508173ffffffffffffffffffffffffffffffffffffffff168173ffffffffffffffffffffffffffffffffffffffff167f8be0079c531659141344cd1fd0a4f28419497f9722a3daafe3b4186f6b6457e060405160405180910390a35050565b600081600001549050919050565b606060ff60001b8314611d5057611d49836128f2565b9050611ddd565b818054611d5c906149fe565b80601f0160208091040260200160405190810160405280929190818152602001828054611d88906149fe565b8015611dd55780601f10611daa57610100808354040283529160200191611dd5565b820191906000526020600020905b815481529060010190602001808311611db857829003601f168201915b505050505090505b92915050565b600065ffffffffffff8016821115611e30576040517f08c379a0000000000000000000000000000000000000000000000000000000008152600401611e279061540b565b60405180910390fd5b819050919050565b6000808260000180549050905060008114611e9757611e6683600001600183611e6191906152a3565b6125d7565b60000160049054906101000a90047bffffffffffffffffffffffffffffffffffffffffffffffffffffffff16611e9a565b60005b915050919050565b8173ffffffffffffffffffffffffffffffffffffffff168373ffffffffffffffffffffffffffffffffffffffff161415611f11576040517f08c379a0000000000000000000000000000000000000000000000000000000008152600401611f0890615477565b60405180910390fd5b80600560008573ffffffffffffffffffffffffffffffffffffffff1673ffffffffffffffffffffffffffffffffffffffff16815260200190815260200160002060008473ffffffffffffffffffffffffffffffffffffffff1673ffffffffffffffffffffffffffffffffffffffff16815260200190815260200160002060006101000a81548160ff0219169083151502179055508173ffffffffffffffffffffffffffffffffffffffff168373ffffffffffffffffffffffffffffffffffffffff167f17307eab39ab6107e8899845ad3d59bd9653f200f220920489ca2b5937696c318360405161200291906140e4565b60405180910390a3505050565b61201a848484611596565b61202684848484612966565b612065576040517f08c379a000000000000000000000000000000000000000000000000000000000815260040161205c90615509565b60405180910390fd5b50505050565b600061207e612078611890565b83612afd565b9050919050565b600080600061209687878787612b3e565b915091506120a381612c21565b8192505050949350505050565b600080601160008473ffffffffffffffffffffffffffffffffffffffff1673ffffffffffffffffffffffffffffffffffffffff16815260200190815260200160002090506120fd81611d25565b915061210881612221565b50919050565b6060612119826113f5565b6000600a60008481526020019081526020016000208054612139906149fe565b80601f0160208091040260200160405190810160405280929190818152602001828054612165906149fe565b80156121b25780601f10612187576101008083540402835291602001916121b2565b820191906000526020600020905b81548152906001019060200180831161219557829003601f168201915b5050505050905060006121c3612d8f565b90506000815114156121d957819250505061221c565b60008251111561220e5780826040516020016121f6929190615565565b6040516020818303038152906040529250505061221c565b61221784612dcc565b925050505b919050565b6001816000016000828254019250508190555050565b612251828260405180602001604052806000815250612e34565b5050565b61225e826123e2565b61229d576040517f08c379a0000000000000000000000000000000000000000000000000000000008152600401612294906155fb565b60405180910390fd5b80600a600084815260200190815260200160002090805190602001906122c4929190613f8d565b507ff8e1a15aba9398e019f0b49df1a4fde98ee17ae345cb5f6b5e2c27f5033e8ce7826040516122f491906142f4565b60405180910390a15050565b600080829050601f8151111561234d57826040517f305a27a90000000000000000000000000000000000000000000000000000000081526004016123449190614198565b60405180910390fd5b80518161235990615658565b60001c1760001b915050919050565b60007f780e9d63000000000000000000000000000000000000000000000000000000007bffffffffffffffffffffffffffffffffffffffffffffffffffffffff1916827bffffffffffffffffffffffffffffffffffffffffffffffffffffffff191614806123db57506123da82612e8f565b5b9050919050565b60008073ffffffffffffffffffffffffffffffffffffffff1661240483611ba4565b73ffffffffffffffffffffffffffffffffffffffff1614159050919050565b61242f84848484612f71565b50505050565b612441848484846130d1565b50505050565b60007f8b73c3c69bb8fe3d512ecc4cf759cc79239f7b179b0ffacaa9a75d522b39400f7f00000000000000000000000000000000000000000000000000000000000000007f000000000000000000000000000000000000000000000000000000000000000046306040516020016124c29594939291906156bf565b60405160208183030381529060405280519060200120905090565b6000808214156124f057600090506125d2565b600060016124fd846130ee565b901c6001901b9050600181848161251757612516615712565b5b048201901c905060018184816125305761252f615712565b5b048201901c9050600181848161254957612548615712565b5b048201901c9050600181848161256257612561615712565b5b048201901c9050600181848161257b5761257a615712565b5b048201901c9050600181848161259457612593615712565b5b048201901c905060018184816125ad576125ac615712565b5b048201901c90506125ce818285816125c8576125c7615712565b5b046131cf565b9150505b919050565b60008260005281602060002001905092915050565b60005b8183101561265457600061260384846131e8565b90508463ffffffff1661261687836125d7565b60000160009054906101000a900463ffffffff1663ffffffff16111561263e5780925061264e565b60018161264b91906152d7565b93505b506125ef565b819050949350505050565b600061266a82610c74565b9050919050565b8173ffffffffffffffffffffffffffffffffffffffff168373ffffffffffffffffffffffffffffffffffffffff16141580156126ad5750600081115b156128ed57600073ffffffffffffffffffffffffffffffffffffffff168373ffffffffffffffffffffffffffffffffffffffff16146127cf5760008061273c600f60008773ffffffffffffffffffffffffffffffffffffffff1673ffffffffffffffffffffffffffffffffffffffff16815260200190815260200160002061320e61273786613224565b61328f565b7bffffffffffffffffffffffffffffffffffffffffffffffffffffffff1691507bffffffffffffffffffffffffffffffffffffffffffffffffffffffff1691508473ffffffffffffffffffffffffffffffffffffffff167fdec2bacdd2f05b59de34da9b523dff8be42e5e38e818c82fdb0bae774387a72483836040516127c4929190615741565b60405180910390a250505b600073ffffffffffffffffffffffffffffffffffffffff168273ffffffffffffffffffffffffffffffffffffffff16146128ec57600080612859600f60008673ffffffffffffffffffffffffffffffffffffffff1673ffffffffffffffffffffffffffffffffffffffff1681526020019081526020016000206132df61285486613224565b61328f565b7bffffffffffffffffffffffffffffffffffffffffffffffffffffffff1691507bffffffffffffffffffffffffffffffffffffffffffffffffffffffff1691508373ffffffffffffffffffffffffffffffffffffffff167fdec2bacdd2f05b59de34da9b523dff8be42e5e38e818c82fdb0bae774387a72483836040516128e1929190615741565b60405180910390a250505b5b505050565b606060006128ff836132f5565b90506000602067ffffffffffffffff81111561291e5761291d6145f2565b5b6040519080825280601f01601f1916602001820160405280156129505781602001600182028036833780820191505090505b5090508181528360208201528092505050919050565b60006129878473ffffffffffffffffffffffffffffffffffffffff16613345565b15612af0578373ffffffffffffffffffffffffffffffffffffffff1663150b7a026129b0611440565b8786866040518563ffffffff1660e01b81526004016129d294939291906157b4565b602060405180830381600087803b1580156129ec57600080fd5b505af1925050508015612a1d57506040513d601f19601f82011682018060405250810190612a1a9190615815565b60015b612aa0573d8060008114612a4d576040519150601f19603f3d011682016040523d82523d6000602084013e612a52565b606091505b50600081511415612a98576040517f08c379a0000000000000000000000000000000000000000000000000000000008152600401612a8f90615509565b60405180910390fd5b805181602001fd5b63150b7a0260e01b7bffffffffffffffffffffffffffffffffffffffffffffffffffffffff1916817bffffffffffffffffffffffffffffffffffffffffffffffffffffffff191614915050612af5565b600190505b949350505050565b60006040517f190100000000000000000000000000000000000000000000000000000000000081528360028201528260228201526042812091505092915050565b6000807f7fffffffffffffffffffffffffffffff5d576e7357a4501ddfe92f46681b20a08360001c1115612b79576000600391509150612c18565b600060018787878760405160008152602001604052604051612b9e9493929190615851565b6020604051602081039080840390855afa158015612bc0573d6000803e3d6000fd5b505050602060405103519050600073ffffffffffffffffffffffffffffffffffffffff168173ffffffffffffffffffffffffffffffffffffffff161415612c0f57600060019250925050612c18565b80600092509250505b94509492505050565b60006004811115612c3557612c34615896565b5b816004811115612c4857612c47615896565b5b1415612c5357612d8c565b60016004811115612c6757612c66615896565b5b816004811115612c7a57612c79615896565b5b1415612cbb576040517f08c379a0000000000000000000000000000000000000000000000000000000008152600401612cb290615911565b60405180910390fd5b60026004811115612ccf57612cce615896565b5b816004811115612ce257612ce1615896565b5b1415612d23576040517f08c379a0000000000000000000000000000000000000000000000000000000008152600401612d1a9061597d565b60405180910390fd5b60036004811115612d3757612d36615896565b5b816004811115612d4a57612d49615896565b5b1415612d8b576040517f08c379a0000000000000000000000000000000000000000000000000000000008152600401612d8290615a0f565b60405180910390fd5b5b50565b60606040518060400160405280601a81526020017f687474703a2f2f3132372e302e302e313a393030302f6e667473000000000000815250905090565b6060612dd7826113f5565b6000612de1612d8f565b90506000815111612e015760405180602001604052806000815250612e2c565b80612e0b84613368565b604051602001612e1c929190615565565b6040516020818303038152906040525b915050919050565b612e3e8383613440565b612e4b6000848484612966565b612e8a576040517f08c379a0000000000000000000000000000000000000000000000000000000008152600401612e8190615509565b60405180910390fd5b505050565b60007f80ac58cd000000000000000000000000000000000000000000000000000000007bffffffffffffffffffffffffffffffffffffffffffffffffffffffff1916827bffffffffffffffffffffffffffffffffffffffffffffffffffffffff19161480612f5a57507f5b5e139f000000000000000000000000000000000000000000000000000000007bffffffffffffffffffffffffffffffffffffffffffffffffffffffff1916827bffffffffffffffffffffffffffffffffffffffffffffffffffffffff1916145b80612f6a5750612f698261365e565b5b9050919050565b612f7d848484846136c8565b6001811115612fc1576040517f08c379a0000000000000000000000000000000000000000000000000000000008152600401612fb890615aa1565b60405180910390fd5b6000829050600073ffffffffffffffffffffffffffffffffffffffff168573ffffffffffffffffffffffffffffffffffffffff16141561300957613004816136ce565b613048565b8373ffffffffffffffffffffffffffffffffffffffff168573ffffffffffffffffffffffffffffffffffffffff1614613047576130468582613717565b5b5b600073ffffffffffffffffffffffffffffffffffffffff168473ffffffffffffffffffffffffffffffffffffffff16141561308b5761308681613884565b6130ca565b8473ffffffffffffffffffffffffffffffffffffffff168473ffffffffffffffffffffffffffffffffffffffff16146130c9576130c88482613955565b5b5b5050505050565b6130dc8484836139d4565b6130e884848484613a90565b50505050565b600080600090506000608084901c111561311057608083901c92506080810190505b6000604084901c111561312b57604083901c92506040810190505b6000602084901c111561314657602083901c92506020810190505b6000601084901c111561316157601083901c92506010810190505b6000600884901c111561317c57600883901c92506008810190505b6000600484901c111561319757600483901c92506004810190505b6000600284901c11156131b257600283901c92506002810190505b6000600184901c11156131c6576001810190505b80915050919050565b60008183106131de57816131e0565b825b905092915050565b600060028284186131f99190615ac1565b82841661320691906152d7565b905092915050565b6000818361321c9190615b1a565b905092915050565b60007bffffffffffffffffffffffffffffffffffffffffffffffffffffffff8016821115613287576040517f08c379a000000000000000000000000000000000000000000000000000000000815260040161327e90615bc0565b60405180910390fd5b819050919050565b6000806132d36132ad6132a0610f50565b65ffffffffffff16611947565b6132c36132b988611e38565b868863ffffffff16565b87613a969092919063ffffffff16565b91509150935093915050565b600081836132ed9190615be0565b905092915050565b60008060ff8360001c169050601f81111561333c576040517fb3512b0c00000000000000000000000000000000000000000000000000000000815260040160405180910390fd5b80915050919050565b6000808273ffffffffffffffffffffffffffffffffffffffff163b119050919050565b60606000600161337784613ab3565b01905060008167ffffffffffffffff811115613396576133956145f2565b5b6040519080825280601f01601f1916602001820160405280156133c85781602001600182028036833780820191505090505b509050600082602001820190505b600115613435578080600190039150507f3031323334353637383961626364656600000000000000000000000000000000600a86061a8153600a858161341f5761341e615712565b5b049450600085141561343057613435565b6133d6565b819350505050919050565b600073ffffffffffffffffffffffffffffffffffffffff168273ffffffffffffffffffffffffffffffffffffffff1614156134b0576040517f08c379a00000000000000000000000000000000000000000000000000000000081526004016134a790615c7e565b60405180910390fd5b6134b9816123e2565b156134f9576040517f08c379a00000000000000000000000000000000000000000000000000000000081526004016134f090615cea565b60405180910390fd5b613507600083836001612423565b613510816123e2565b15613550576040517f08c379a000000000000000000000000000000000000000000000000000000000815260040161354790615cea565b60405180910390fd5b6001600360008473ffffffffffffffffffffffffffffffffffffffff1673ffffffffffffffffffffffffffffffffffffffff16815260200190815260200160002060008282540192505081905550816002600083815260200190815260200160002060006101000a81548173ffffffffffffffffffffffffffffffffffffffff021916908373ffffffffffffffffffffffffffffffffffffffff160217905550808273ffffffffffffffffffffffffffffffffffffffff16600073ffffffffffffffffffffffffffffffffffffffff167fddf252ad1be2c89b69c2b068fc378daa952ba7f163c4a11628f55a4df523b3ef60405160405180910390a461365a600083836001612435565b5050565b60007f01ffc9a7000000000000000000000000000000000000000000000000000000007bffffffffffffffffffffffffffffffffffffffffffffffffffffffff1916827bffffffffffffffffffffffffffffffffffffffffffffffffffffffff1916149050919050565b50505050565b6008805490506009600083815260200190815260200160002081905550600881908060018154018082558091505060019003906000526020600020016000909190919091505550565b6000600161372484610c74565b61372e91906152a3565b9050600060076000848152602001908152602001600020549050818114613813576000600660008673ffffffffffffffffffffffffffffffffffffffff1673ffffffffffffffffffffffffffffffffffffffff168152602001908152602001600020600084815260200190815260200160002054905080600660008773ffffffffffffffffffffffffffffffffffffffff1673ffffffffffffffffffffffffffffffffffffffff168152602001908152602001600020600084815260200190815260200160002081905550816007600083815260200190815260200160002081905550505b6007600084815260200190815260200160002060009055600660008573ffffffffffffffffffffffffffffffffffffffff1673ffffffffffffffffffffffffffffffffffffffff16815260200190815260200160002060008381526020019081526020016000206000905550505050565b6000600160088054905061389891906152a3565b90506000600960008481526020019081526020016000205490506000600883815481106138c8576138c7614de2565b5b9060005260206000200154905080600883815481106138ea576138e9614de2565b5b90600052602060002001819055508160096000838152602001908152602001600020819055506009600085815260200190815260200160002060009055600880548061393957613938615d0a565b5b6001900381819060005260206000200160009055905550505050565b600061396083610c74565b905081600660008573ffffffffffffffffffffffffffffffffffffffff1673ffffffffffffffffffffffffffffffffffffffff168152602001908152602001600020600083815260200190815260200160002081905550806007600084815260200190815260200160002081905550505050565b600073ffffffffffffffffffffffffffffffffffffffff168373ffffffffffffffffffffffffffffffffffffffff161415613a2257613a1f60106132df613a1a84613224565b61328f565b50505b600073ffffffffffffffffffffffffffffffffffffffff168273ffffffffffffffffffffffffffffffffffffffff161415613a7057613a6d601061320e613a6884613224565b61328f565b50505b613a8b613a7c84610b6a565b613a8584610b6a565b83612671565b505050565b50505050565b600080613aa7856000018585613c06565b91509150935093915050565b600080600090507a184f03e93ff9f4daa797ed6e38ed64bf6a1f0100000000000000008310613b11577a184f03e93ff9f4daa797ed6e38ed64bf6a1f0100000000000000008381613b0757613b06615712565b5b0492506040810190505b6d04ee2d6d415b85acef81000000008310613b4e576d04ee2d6d415b85acef81000000008381613b4457613b43615712565b5b0492506020810190505b662386f26fc100008310613b7d57662386f26fc100008381613b7357613b72615712565b5b0492506010810190505b6305f5e1008310613ba6576305f5e1008381613b9c57613b9b615712565b5b0492506008810190505b6127108310613bcb576127108381613bc157613bc0615712565b5b0492506004810190505b60648310613bee5760648381613be457613be3615712565b5b0492506002810190505b600a8310613bfd576001810190505b80915050919050565b6000806000858054905090506000811115613e9d576000613c3387600184613c2e91906152a3565b6125d7565b6040518060400160405290816000820160009054906101000a900463ffffffff1663ffffffff1663ffffffff1681526020016000820160049054906101000a90047bffffffffffffffffffffffffffffffffffffffffffffffffffffffff167bffffffffffffffffffffffffffffffffffffffffffffffffffffffff167bffffffffffffffffffffffffffffffffffffffffffffffffffffffff168152505090508563ffffffff16816000015163ffffffff161115613d27576040517f08c379a0000000000000000000000000000000000000000000000000000000008152600401613d1e90615d85565b60405180910390fd5b8563ffffffff16816000015163ffffffff161415613dac5784613d5688600185613d5191906152a3565b6125d7565b60000160046101000a8154817bffffffffffffffffffffffffffffffffffffffffffffffffffffffff02191690837bffffffffffffffffffffffffffffffffffffffffffffffffffffffff160217905550613e8c565b8660405180604001604052808863ffffffff168152602001877bffffffffffffffffffffffffffffffffffffffffffffffffffffffff168152509080600181540180825580915050600190039060005260206000200160009091909190915060008201518160000160006101000a81548163ffffffff021916908363ffffffff16021790555060208201518160000160046101000a8154817bffffffffffffffffffffffffffffffffffffffffffffffffffffffff02191690837bffffffffffffffffffffffffffffffffffffffffffffffffffffffff16021790555050505b806020015185935093505050613f85565b8560405180604001604052808763ffffffff168152602001867bffffffffffffffffffffffffffffffffffffffffffffffffffffffff168152509080600181540180825580915050600190039060005260206000200160009091909190915060008201518160000160006101000a81548163ffffffff021916908363ffffffff16021790555060208201518160000160046101000a8154817bffffffffffffffffffffffffffffffffffffffffffffffffffffffff02191690837bffffffffffffffffffffffffffffffffffffffffffffffffffffffff160217905550505060008492509250505b935093915050565b828054613f99906149fe565b90600052602060002090601f016020900481019282613fbb5760008555614002565b82601f10613fd457805160ff1916838001178555614002565b82800160010185558215614002579182015b82811115614001578251825591602001919060010190613fe6565b5b50905061400f9190614013565b5090565b5b8082111561402c576000816000905550600101614014565b5090565b6000604051905090565b600080fd5b600080fd5b60007fffffffff0000000000000000000000000000000000000000000000000000000082169050919050565b61407981614044565b811461408457600080fd5b50565b60008135905061409681614070565b92915050565b6000602082840312156140b2576140b161403a565b5b60006140c084828501614087565b91505092915050565b60008115159050919050565b6140de816140c9565b82525050565b60006020820190506140f960008301846140d5565b92915050565b600081519050919050565b600082825260208201905092915050565b60005b8381101561413957808201518184015260208101905061411e565b83811115614148576000848401525b50505050565b6000601f19601f8301169050919050565b600061416a826140ff565b614174818561410a565b935061418481856020860161411b565b61418d8161414e565b840191505092915050565b600060208201905081810360008301526141b2818461415f565b905092915050565b6000819050919050565b6141cd816141ba565b81146141d857600080fd5b50565b6000813590506141ea816141c4565b92915050565b6000602082840312156142065761420561403a565b5b6000614214848285016141db565b91505092915050565b600073ffffffffffffffffffffffffffffffffffffffff82169050919050565b60006142488261421d565b9050919050565b6142588161423d565b82525050565b6000602082019050614273600083018461424f565b92915050565b6142828161423d565b811461428d57600080fd5b50565b60008135905061429f81614279565b92915050565b600080604083850312156142bc576142bb61403a565b5b60006142ca85828601614290565b92505060206142db858286016141db565b9150509250929050565b6142ee816141ba565b82525050565b600060208201905061430960008301846142e5565b92915050565b6000806000606084860312156143285761432761403a565b5b600061433686828701614290565b935050602061434786828701614290565b9250506040614358868287016141db565b9150509250925092565b6000819050919050565b61437581614362565b82525050565b6000602082019050614390600083018461436c565b92915050565b6000602082840312156143ac576143ab61403a565b5b60006143ba84828501614290565b91505092915050565b60007fff0000000000000000000000000000000000000000000000000000000000000082169050919050565b6143f8816143c3565b82525050565b600081519050919050565b600082825260208201905092915050565b6000819050602082019050919050565b614433816141ba565b82525050565b6000614445838361442a565b60208301905092915050565b6000602082019050919050565b6000614469826143fe565b6144738185614409565b935061447e8361441a565b8060005b838110156144af5781516144968882614439565b97506144a183614451565b925050600181019050614482565b5085935050505092915050565b600060e0820190506144d1600083018a6143ef565b81810360208301526144e3818961415f565b905081810360408301526144f7818861415f565b905061450660608301876142e5565b614513608083018661424f565b61452060a083018561436c565b81810360c0830152614532818461445e565b905098975050505050505050565b600065ffffffffffff82169050919050565b61455b81614540565b82525050565b60006020820190506145766000830184614552565b92915050565b614585816140c9565b811461459057600080fd5b50565b6000813590506145a28161457c565b92915050565b600080604083850312156145bf576145be61403a565b5b60006145cd85828601614290565b92505060206145de85828601614593565b9150509250929050565b600080fd5b600080fd5b7f4e487b7100000000000000000000000000000000000000000000000000000000600052604160045260246000fd5b61462a8261414e565b810181811067ffffffffffffffff82111715614649576146486145f2565b5b80604052505050565b600061465c614030565b90506146688282614621565b919050565b600067ffffffffffffffff821115614688576146876145f2565b5b6146918261414e565b9050602081019050919050565b82818337600083830152505050565b60006146c06146bb8461466d565b614652565b9050828152602081018484840111156146dc576146db6145ed565b5b6146e784828561469e565b509392505050565b600082601f830112614704576147036145e8565b5b81356147148482602086016146ad565b91505092915050565b600080600080608085870312156147375761473661403a565b5b600061474587828801614290565b945050602061475687828801614290565b9350506040614767878288016141db565b925050606085013567ffffffffffffffff8111156147885761478761403f565b5b614794878288016146ef565b91505092959194509250565b600060ff82169050919050565b6147b6816147a0565b81146147c157600080fd5b50565b6000813590506147d3816147ad565b92915050565b6147e281614362565b81146147ed57600080fd5b50565b6000813590506147ff816147d9565b92915050565b60008060008060008060c087890312156148225761482161403a565b5b600061483089828a01614290565b965050602061484189828a016141db565b955050604061485289828a016141db565b945050606061486389828a016147c4565b935050608061487489828a016147f0565b92505060a061488589828a016147f0565b9150509295509295509295565b600067ffffffffffffffff8211156148ad576148ac6145f2565b5b6148b68261414e565b9050602081019050919050565b60006148d66148d184614892565b614652565b9050828152602081018484840111156148f2576148f16145ed565b5b6148fd84828561469e565b509392505050565b600082601f83011261491a576149196145e8565b5b813561492a8482602086016148c3565b91505092915050565b6000806040838503121561494a5761494961403a565b5b600061495885828601614290565b925050602083013567ffffffffffffffff8111156149795761497861403f565b5b61498585828601614905565b9150509250929050565b600080604083850312156149a6576149a561403a565b5b60006149b485828601614290565b92505060206149c585828601614290565b9150509250929050565b7f4e487b7100000000000000000000000000000000000000000000000000000000600052602260045260246000fd5b60006002820490506001821680614a1657607f821691505b60208210811415614a2a57614a296149cf565b5b50919050565b7f4552433732313a20617070726f76616c20746f2063757272656e74206f776e6560008201527f7200000000000000000000000000000000000000000000000000000000000000602082015250565b6000614a8c60218361410a565b9150614a9782614a30565b604082019050919050565b60006020820190508181036000830152614abb81614a7f565b9050919050565b7f4552433732313a20617070726f76652063616c6c6572206973206e6f7420746f60008201527f6b656e206f776e6572206f7220617070726f76656420666f7220616c6c000000602082015250565b6000614b1e603d8361410a565b9150614b2982614ac2565b604082019050919050565b60006020820190508181036000830152614b4d81614b11565b9050919050565b7f4552433732313a2063616c6c6572206973206e6f7420746f6b656e206f776e6560008201527f72206f7220617070726f76656400000000000000000000000000000000000000602082015250565b6000614bb0602d8361410a565b9150614bbb82614b54565b604082019050919050565b60006020820190508181036000830152614bdf81614ba3565b9050919050565b7f455243373231456e756d657261626c653a206f776e657220696e646578206f7560008201527f74206f6620626f756e6473000000000000000000000000000000000000000000602082015250565b6000614c42602b8361410a565b9150614c4d82614be6565b604082019050919050565b60006020820190508181036000830152614c7181614c35565b9050919050565b7f566f7465733a20667574757265206c6f6f6b7570000000000000000000000000600082015250565b6000614cae60148361410a565b9150614cb982614c78565b602082019050919050565b60006020820190508181036000830152614cdd81614ca1565b9050919050565b7f566f7465733a2062726f6b656e20636c6f636b206d6f64650000000000000000600082015250565b6000614d1a60188361410a565b9150614d2582614ce4565b602082019050919050565b60006020820190508181036000830152614d4981614d0d565b9050919050565b7f455243373231456e756d657261626c653a20676c6f62616c20696e646578206f60008201527f7574206f6620626f756e64730000000000000000000000000000000000000000602082015250565b6000614dac602c8361410a565b9150614db782614d50565b604082019050919050565b60006020820190508181036000830152614ddb81614d9f565b9050919050565b7f4e487b7100000000000000000000000000000000000000000000000000000000600052603260045260246000fd5b7f4552433732313a20696e76616c696420746f6b656e2049440000000000000000600082015250565b6000614e4760188361410a565b9150614e5282614e11565b602082019050919050565b60006020820190508181036000830152614e7681614e3a565b9050919050565b7f4552433732313a2061646472657373207a65726f206973206e6f74206120766160008201527f6c6964206f776e65720000000000000000000000000000000000000000000000602082015250565b6000614ed960298361410a565b9150614ee482614e7d565b604082019050919050565b60006020820190508181036000830152614f0881614ecc565b9050919050565b7f566f7465733a207369676e617475726520657870697265640000000000000000600082015250565b6000614f4560188361410a565b9150614f5082614f0f565b602082019050919050565b60006020820190508181036000830152614f7481614f38565b9050919050565b6000608082019050614f90600083018761436c565b614f9d602083018661424f565b614faa60408301856142e5565b614fb760608301846142e5565b95945050505050565b7f566f7465733a20696e76616c6964206e6f6e6365000000000000000000000000600082015250565b6000614ff660148361410a565b915061500182614fc0565b602082019050919050565b6000602082019050818103600083015261502581614fe9565b9050919050565b7f4f776e61626c653a206e6577206f776e657220697320746865207a65726f206160008201527f6464726573730000000000000000000000000000000000000000000000000000602082015250565b600061508860268361410a565b91506150938261502c565b604082019050919050565b600060208201905081810360008301526150b78161507b565b9050919050565b7f4552433732313a207472616e736665722066726f6d20696e636f72726563742060008201527f6f776e6572000000000000000000000000000000000000000000000000000000602082015250565b600061511a60258361410a565b9150615125826150be565b604082019050919050565b600060208201905081810360008301526151498161510d565b9050919050565b7f4552433732313a207472616e7366657220746f20746865207a65726f2061646460008201527f7265737300000000000000000000000000000000000000000000000000000000602082015250565b60006151ac60248361410a565b91506151b782615150565b604082019050919050565b600060208201905081810360008301526151db8161519f565b9050919050565b7f53616665436173743a2076616c756520646f65736e27742066697420696e203360008201527f3220626974730000000000000000000000000000000000000000000000000000602082015250565b600061523e60268361410a565b9150615249826151e2565b604082019050919050565b6000602082019050818103600083015261526d81615231565b9050919050565b7f4e487b7100000000000000000000000000000000000000000000000000000000600052601160045260246000fd5b60006152ae826141ba565b91506152b9836141ba565b9250828210156152cc576152cb615274565b5b828203905092915050565b60006152e2826141ba565b91506152ed836141ba565b9250827fffffffffffffffffffffffffffffffffffffffffffffffffffffffffffffffff0382111561532257615321615274565b5b828201905092915050565b7f4f776e61626c653a2063616c6c6572206973206e6f7420746865206f776e6572600082015250565b600061536360208361410a565b915061536e8261532d565b602082019050919050565b6000602082019050818103600083015261539281615356565b9050919050565b7f53616665436173743a2076616c756520646f65736e27742066697420696e203460008201527f3820626974730000000000000000000000000000000000000000000000000000602082015250565b60006153f560268361410a565b915061540082615399565b604082019050919050565b60006020820190508181036000830152615424816153e8565b9050919050565b7f4552433732313a20617070726f766520746f2063616c6c657200000000000000600082015250565b600061546160198361410a565b915061546c8261542b565b602082019050919050565b6000602082019050818103600083015261549081615454565b9050919050565b7f4552433732313a207472616e7366657220746f206e6f6e20455243373231526560008201527f63656976657220696d706c656d656e7465720000000000000000000000000000602082015250565b60006154f360328361410a565b91506154fe82615497565b604082019050919050565b60006020820190508181036000830152615522816154e6565b9050919050565b600081905092915050565b600061553f826140ff565b6155498185615529565b935061555981856020860161411b565b80840191505092915050565b60006155718285615534565b915061557d8284615534565b91508190509392505050565b7f45524337323155524953746f726167653a2055524920736574206f66206e6f6e60008201527f6578697374656e7420746f6b656e000000000000000000000000000000000000602082015250565b60006155e5602e8361410a565b91506155f082615589565b604082019050919050565b60006020820190508181036000830152615614816155d8565b9050919050565b600081519050919050565b6000819050602082019050919050565b60006156428251614362565b80915050919050565b600082821b905092915050565b60006156638261561b565b8261566d84615626565b905061567881615636565b925060208210156156b8576156b37fffffffffffffffffffffffffffffffffffffffffffffffffffffffffffffffff8360200360080261564b565b831692505b5050919050565b600060a0820190506156d4600083018861436c565b6156e1602083018761436c565b6156ee604083018661436c565b6156fb60608301856142e5565b615708608083018461424f565b9695505050505050565b7f4e487b7100000000000000000000000000000000000000000000000000000000600052601260045260246000fd5b600060408201905061575660008301856142e5565b61576360208301846142e5565b9392505050565b600082825260208201905092915050565b60006157868261561b565b615790818561576a565b93506157a081856020860161411b565b6157a98161414e565b840191505092915050565b60006080820190506157c9600083018761424f565b6157d6602083018661424f565b6157e360408301856142e5565b81810360608301526157f5818461577b565b905095945050505050565b60008151905061580f81614070565b92915050565b60006020828403121561582b5761582a61403a565b5b600061583984828501615800565b91505092915050565b61584b816147a0565b82525050565b6000608082019050615866600083018761436c565b6158736020830186615842565b615880604083018561436c565b61588d606083018461436c565b95945050505050565b7f4e487b7100000000000000000000000000000000000000000000000000000000600052602160045260246000fd5b7f45434453413a20696e76616c6964207369676e61747572650000000000000000600082015250565b60006158fb60188361410a565b9150615906826158c5565b602082019050919050565b6000602082019050818103600083015261592a816158ee565b9050919050565b7f45434453413a20696e76616c6964207369676e6174757265206c656e67746800600082015250565b6000615967601f8361410a565b915061597282615931565b602082019050919050565b600060208201905081810360008301526159968161595a565b9050919050565b7f45434453413a20696e76616c6964207369676e6174757265202773272076616c60008201527f7565000000000000000000000000000000000000000000000000000000000000602082015250565b60006159f960228361410a565b9150615a048261599d565b604082019050919050565b60006020820190508181036000830152615a28816159ec565b9050919050565b7f455243373231456e756d657261626c653a20636f6e736563757469766520747260008201527f616e7366657273206e6f7420737570706f727465640000000000000000000000602082015250565b6000615a8b60358361410a565b9150615a9682615a2f565b604082019050919050565b60006020820190508181036000830152615aba81615a7e565b9050919050565b6000615acc826141ba565b9150615ad7836141ba565b925082615ae757615ae6615712565b5b828204905092915050565b60007bffffffffffffffffffffffffffffffffffffffffffffffffffffffff82169050919050565b6000615b2582615af2565b9150615b3083615af2565b925082821015615b4357615b42615274565b5b828203905092915050565b7f53616665436173743a2076616c756520646f65736e27742066697420696e203260008201527f3234206269747300000000000000000000000000000000000000000000000000602082015250565b6000615baa60278361410a565b9150615bb582615b4e565b604082019050919050565b60006020820190508181036000830152615bd981615b9d565b9050919050565b6000615beb82615af2565b9150615bf683615af2565b9250827bffffffffffffffffffffffffffffffffffffffffffffffffffffffff03821115615c2757615c26615274565b5b828201905092915050565b7f4552433732313a206d696e7420746f20746865207a65726f2061646472657373600082015250565b6000615c6860208361410a565b9150615c7382615c32565b602082019050919050565b60006020820190508181036000830152615c9781615c5b565b9050919050565b7f4552433732313a20746f6b656e20616c7265616479206d696e74656400000000600082015250565b6000615cd4601c8361410a565b9150615cdf82615c9e565b602082019050919050565b60006020820190508181036000830152615d0381615cc7565b9050919050565b7f4e487b7100000000000000000000000000000000000000000000000000000000600052603160045260246000fd5b7f436865636b706f696e743a2064656372656173696e67206b6579730000000000600082015250565b6000615d6f601b8361410a565b9150615d7a82615d39565b602082019050919050565b60006020820190508181036000830152615d9e81615d62565b905091905056fea2646970667358221220a570512d330ab68448db16476c31ddef8aa9949fb962a382769d3643e4ada14964736f6c63430008090033",
  "immutableReferences": {
    "6098": [
      {
        "length": 32,
        "start": 6419
      }
    ],
    "6100": [
      {
        "length": 32,
        "start": 6378
      }
    ],
    "6102": [
      {
        "length": 32,
        "start": 6292
      }
    ],
    "6104": [
      {
        "length": 32,
        "start": 9324
      }
    ],
    "6106": [
      {
        "length": 32,
        "start": 9357
      }
    ],
    "6109": [
      {
        "length": 32,
        "start": 3491
      }
    ],
    "6112": [
      {
        "length": 32,
        "start": 3543
      }
    ]
  },
  "source": "// SPDX-License-Identifier: MIT\r\npragma solidity ^0.8.9;\r\n\r\nimport \"@openzeppelin/contracts/token/ERC721/ERC721.sol\";\r\nimport \"@openzeppelin/contracts/token/ERC721/extensions/ERC721Enumerable.sol\";\r\nimport \"@openzeppelin/contracts/token/ERC721/extensions/ERC721URIStorage.sol\";\r\nimport \"@openzeppelin/contracts/access/Ownable.sol\";\r\nimport \"@openzeppelin/contracts/utils/cryptography/draft-EIP712.sol\";\r\nimport \"@openzeppelin/contracts/token/ERC721/extensions/draft-ERC721Votes.sol\";\r\nimport \"@openzeppelin/contracts/utils/Counters.sol\";\r\nimport \"@openzeppelin/contracts/token/ERC721/extensions/ERC721Votes.sol\";\r\n\r\ncontract IRProperty is ERC721, ERC721Enumerable, ERC721URIStorage, Ownable, EIP712, ERC721Votes {\r\n    using Counters for Counters.Counter;\r\n\r\n    Counters.Counter private _tokenIdCounter;\r\n\r\n    constructor() ERC721(\"IR property\", \"IRP\") EIP712(\"IR property\", \"1\") {}\r\n\r\n    function _baseURI() internal pure override returns (string memory) {\r\n        return \"http://127.0.0.1:9000/nfts\";\r\n    }\r\n\r\n    function safeMint(address to, string memory uri) public onlyOwner {\r\n        uint256 tokenId = _tokenIdCounter.current();\r\n        _tokenIdCounter.increment();\r\n        _safeMint(to, tokenId);\r\n        _setTokenURI(tokenId, uri);\r\n    }\r\n\r\n    // The following functions are overrides required by Solidity.\r\n\r\n    function _beforeTokenTransfer(address from, address to, uint256 tokenId, uint256 batchSize)\r\n    internal\r\n    override(ERC721, ERC721Enumerable)\r\n    {\r\n        super._beforeTokenTransfer(from, to, tokenId, batchSize);\r\n    }\r\n\r\n    function _afterTokenTransfer(address from, address to, uint256 tokenId, uint256 batchSize)\r\n    internal\r\n    override(ERC721, ERC721Votes)\r\n    {\r\n        super._afterTokenTransfer(from, to, tokenId, batchSize);\r\n    }\r\n\r\n    function _burn(uint256 tokenId) internal override(ERC721, ERC721URIStorage) {\r\n        super._burn(tokenId);\r\n    }\r\n\r\n    function tokenURI(uint256 tokenId)\r\n    public\r\n    view\r\n    override(ERC721, ERC721URIStorage)\r\n    returns (string memory)\r\n    {\r\n        return super.tokenURI(tokenId);\r\n    }\r\n\r\n    function supportsInterface(bytes4 interfaceId)\r\n    public\r\n    view\r\n    override(ERC721, ERC721Enumerable, ERC721URIStorage)\r\n    returns (bool)\r\n    {\r\n        return super.supportsInterface(interfaceId);\r\n    }\r\n}\r\n",
  "sourcePath": "C:\\Users\\Online\\Documents\\Lessons\\Project\\NFT_market\\SmartContract\\contracts\\NFT.sol",
  "compiler": {
    "name": "solc",
    "version": "0.8.9+commit.e5eed63a.Emscripten.clang"
  },
  "schemaVersion": "3.4.14",
  "updatedAt": "2023-08-12T18:10:09.660Z",
  "devdoc": {
    "kind": "dev",
    "methods": {
      "CLOCK_MODE()": {
        "details": "Machine-readable description of the clock as specified in EIP-6372."
      },
      "DOMAIN_SEPARATOR()": {
        "details": "Returns the contract's {EIP712} domain separator."
      },
      "approve(address,uint256)": {
        "details": "See {IERC721-approve}."
      },
      "balanceOf(address)": {
        "details": "See {IERC721-balanceOf}."
      },
      "clock()": {
        "details": "Clock used for flagging checkpoints. Can be overridden to implement timestamp based checkpoints (and voting), in which case {CLOCK_MODE} should be overridden as well to match."
      },
      "delegate(address)": {
        "details": "Delegates votes from the sender to `delegatee`."
      },
      "delegateBySig(address,uint256,uint256,uint8,bytes32,bytes32)": {
        "details": "Delegates votes from signer to `delegatee`."
      },
      "delegates(address)": {
        "details": "Returns the delegate that `account` has chosen."
      },
      "eip712Domain()": {
        "details": "See {EIP-5267}. _Available since v4.9._"
      },
      "getApproved(uint256)": {
        "details": "See {IERC721-getApproved}."
      },
      "getPastTotalSupply(uint256)": {
        "details": "Returns the total supply of votes available at a specific moment in the past. If the `clock()` is configured to use block numbers, this will return the value at the end of the corresponding block. NOTE: This value is the sum of all available votes, which is not necessarily the sum of all delegated votes. Votes that have not been delegated are still part of total supply, even though they would not participate in a vote. Requirements: - `timepoint` must be in the past. If operating using block numbers, the block must be already mined."
      },
      "getPastVotes(address,uint256)": {
        "details": "Returns the amount of votes that `account` had at a specific moment in the past. If the `clock()` is configured to use block numbers, this will return the value at the end of the corresponding block. Requirements: - `timepoint` must be in the past. If operating using block numbers, the block must be already mined."
      },
      "getVotes(address)": {
        "details": "Returns the current amount of votes that `account` has."
      },
      "isApprovedForAll(address,address)": {
        "details": "See {IERC721-isApprovedForAll}."
      },
      "name()": {
        "details": "See {IERC721Metadata-name}."
      },
      "nonces(address)": {
        "details": "Returns an address nonce."
      },
      "owner()": {
        "details": "Returns the address of the current owner."
      },
      "ownerOf(uint256)": {
        "details": "See {IERC721-ownerOf}."
      },
      "renounceOwnership()": {
        "details": "Leaves the contract without owner. It will not be possible to call `onlyOwner` functions. Can only be called by the current owner. NOTE: Renouncing ownership will leave the contract without an owner, thereby disabling any functionality that is only available to the owner."
      },
      "safeTransferFrom(address,address,uint256)": {
        "details": "See {IERC721-safeTransferFrom}."
      },
      "safeTransferFrom(address,address,uint256,bytes)": {
        "details": "See {IERC721-safeTransferFrom}."
      },
      "setApprovalForAll(address,bool)": {
        "details": "See {IERC721-setApprovalForAll}."
      },
      "symbol()": {
        "details": "See {IERC721Metadata-symbol}."
      },
      "tokenByIndex(uint256)": {
        "details": "See {IERC721Enumerable-tokenByIndex}."
      },
      "tokenOfOwnerByIndex(address,uint256)": {
        "details": "See {IERC721Enumerable-tokenOfOwnerByIndex}."
      },
      "totalSupply()": {
        "details": "See {IERC721Enumerable-totalSupply}."
      },
      "transferFrom(address,address,uint256)": {
        "details": "See {IERC721-transferFrom}."
      },
      "transferOwnership(address)": {
        "details": "Transfers ownership of the contract to a new account (`newOwner`). Can only be called by the current owner."
      }
    },
    "version": 1
  },
  "userdoc": {
    "kind": "user",
    "methods": {},
    "version": 1
  }
}